:020000040800F2
:1000000000C00020E93B0008A9230008B123000834
:10001000B9230008C1230008C9230008000000001C
:10002000000000000000000000000000D1230008D4
:10003000DF23000800000000ED230008FB23000878
:10004000393C0008393C0008393C0008393C0008BC
:10005000393C0008393C0008393C0008393C0008AC
:10006000393C0008393C0008393C0008393C00089C
:100070000D24000821240008352400084924000824
:10008000393C0008393C0008393C0008393C00087C
:10009000393C0008393C0008393C0008393C00086C
:1000A000393C0008393C0008393C0008393C00085C
:1000B0005D2400080000000000000000393C00083A
:1000C000393C0008393C0008393C00089D240008F0
:1000D000B1240008C5240008393C0008393C000858
:1000E000393C0008393C0008000000000000000016
:1000F0000000000000000000000000000000000000
:1001000000000000393C000800000000393C0008F5
:100110000000000000000000AD250008393C000888
:10012000393C0008393C0008393C0008393C0008DB
:10013000393C000800000000000000000000000042
:10014000393C0008393C0008393C0008393C0008BB
:10015000C1250008D5250008393C0008393C0008B5
:10016000393C0008393C0008393C00080000000018
:10017000393C0008393C0008393C00080000000008
:0C018000393C0008393C0008393C0008FC
:1001900010B5054C237833B9044B13B10448AFF3C1
:1001A00000800123237010BD200200200000000009
:1001B0008C1F010808B5034B1BB103490348AFF37B
:1001C000008008BD00000000240200208C1F0108F0
:1001D00010F8012B11F8013B012A28BF9A42F7D0F1
:1001E000D01A70470000000000000000000000006E
:1001F00001F0FF01102A2BDB10F0070F08D010F8D8
:10020000013B013A8B422DD010F0070F42B3F6D1DB
:10021000F0B441EA012141EA014122F007047FF0F4
:1002200000070023F0E80256083C85EA010586EA4B
:10023000010685FA47F5A3FA87F586FA47F6A5FA87
:1002400087F68EB9EED1F0BC01F0FF0102F0070293
:1002500032B110F8013B013A83EA010313B1F8D13E
:100260000020704701387047002D06BF354603381F
:10027000073815F0010F07D1013015F4807F02BF58
:10028000013015F4C03F0130F0BC0138704700BFA9
:10029000034613F8012B002AFBD1181A01387047C6
:1002A00081F0004102E000BF83F0004330B54FEA27
:1002B00041044FEA430594EA050F08BF90EA020F94
:1002C0001FBF54EA000C55EA020C7FEA645C7FEA27
:1002D000655C00F0E2804FEA5454D4EB5555B8BF4A
:1002E0006D420CDD2C4480EA020281EA030382EABB
:1002F000000083EA010180EA020281EA0303362D4D
:1003000088BF30BD11F0004F4FEA01314FF4801C1F
:100310004CEA113102D0404261EB410113F0004F31
:100320004FEA03334CEA133302D0524263EB4303E8
:1003300094EA050F00F0A780A4F10104D5F1200E86
:100340000DDB02FA0EFC22FA05F2801841F10001E1
:1003500003FA0EF2801843FA05F359410EE0A5F1B5
:1003600020050EF1200E012A03FA0EFC28BF4CF0E6
:10037000020C43FA05F3C01851EBE37101F000459C
:1003800007D54FF0000EDCF1000C7EEB00006EEBA9
:100390000101B1F5801F1BD3B1F5001F0CD3490833
:1003A0005FEA30004FEA3C0C04F101044FEA44528A
:1003B00012F5800F80F09A80BCF1004F08BF5FEA11
:1003C000500C50F1000041EB045141EA050130BDF1
:1003D0005FEA4C0C404141EB0101013C28BFB1F503
:1003E000801FE9D291F0000F04BF01460020B1FA4E
:1003F00081F308BF2033A3F10B03B3F120020CDA21
:100400000C3208DD02F1140CC2F10C0201FA0CF0FE
:1004100021FA02F10CE002F11402D8BFC2F1200C63
:1004200001FA02F120FA0CFCDCBF41EA0C01904019
:10043000E41AA2BF01EB0451294330BD6FEA040462
:100440001F3C1CDA0C340EDC04F11404C4F120024D
:1004500020FA04F001FA02F340EA030021FA04F35F
:1004600045EA030130BDC4F10C04C4F1200220FAB6
:1004700002F001FA04F340EA0300294630BD21FAF4
:1004800004F0294630BD94F0000F83F4801306BFBA
:1004900081F480110134013D4EE77FEA645C18BFAE
:1004A0007FEA655C29D094EA050F08BF90EA020F45
:1004B00005D054EA000C04BF1946104630BD91EA3D
:1004C000030F1EBF0021002030BD5FEA545C05D140
:1004D0004000494128BF41F0004130BD14F580047F
:1004E0003CBF01F5801130BD01F0004545F0FE41F3
:1004F00041F470014FF0000030BD7FEA645C1ABF28
:10050000194610467FEA655C1CBF0B46024650EA5E
:10051000013406BF52EA033591EA030F41F400218A
:1005200030BD00BF90F0000F04BF0021704730B510
:100530004FF4806404F132044FF000054FF00001E5
:1005400050E700BF90F0000F04BF0021704730B5A6
:100550004FF4806404F1320410F0004548BF40427B
:100560004FF000013EE700BF42004FEAE2014FEAD0
:1005700031014FEA02701FBF12F07F4393F07F4FAB
:1005800081F06051704732F07F4208BF704793F0AE
:100590007F4F04BF41F40021704730B54FF46074C1
:1005A00001F0004521F000411CE700BF50EA0102C4
:1005B00008BF704730B54FF000050AE050EA01026D
:1005C00008BF704730B511F0004502D5404261EBDD
:1005D00041014FF4806404F132045FEA915C3FF41E
:1005E000D8AE4FF003025FEADC0C18BF03325FEABB
:1005F000DC0C18BF033202EBDC02C2F1200300FA6C
:1006000003FC20FA02F001FA03FE40EA0E0021FA90
:1006100002F11444BDE600BF70B54FF0FF0C4CF47E
:10062000E06C1CEA11541DBF1CEA135594EA0C0F30
:1006300095EA0C0F00F0DEF82C4481EA030621EA6B
:100640004C5123EA4C5350EA013518BF52EA0335A6
:1006500041F4801143F4801338D0A0FB02CE4FF058
:100660000005E1FB02E506F00042E0FB03E54FF088
:100670000006E1FB03569CF0000F18BF4EF0010E80
:10068000A4F1FF04B6F5007F64F5407404D25FEA7C
:100690004E0E6D4146EB060642EAC62141EA55512F
:1006A0004FEAC52040EA5E504FEACE2EB4F1FD0C71
:1006B00088BFBCF5E06F1ED8BEF1004F08BF5FEAEF
:1006C000500E50F1000041EB045170BD06F00046A1
:1006D00046EA010140EA020081EA0301B4EB5C044E
:1006E000C2BFD4EB0C0541EA045170BD41F4801146
:1006F0004FF0000E013C00F3AB8014F1360FDEBF6B
:10070000002001F0004170BDC4F10004203C35DA46
:100710000C341BDC04F11404C4F1200500FA05F3C9
:1007200020FA04F001FA05F240EA020001F000426A
:1007300021F0004110EBD37021FA04F642EB0601E0
:100740005EEA430E08BF20EAD37070BDC4F10C040A
:10075000C4F1200500FA04F320FA05F001FA04F2CE
:1007600040EA020001F0004110EBD37041F10001BA
:100770005EEA430E08BF20EAD37070BDC4F12005C5
:1007800000FA05F24EEA020E20FA04F301FA05F22D
:1007900043EA020321FA04F001F0004121FA04F2D5
:1007A00020EA020000EBD3705EEA430E08BF20EAA5
:1007B000D37070BD94F0000F0FD101F000464000DF
:1007C00041EB010111F4801F08BF013CF7D041EA61
:1007D000060195F0000F18BF704703F00046520065
:1007E00043EB030313F4801F08BF013DF7D043EA36
:1007F0000603704794EA0C0F0CEA135518BF95EAEC
:100800000C0F0CD050EA410618BF52EA4306D1D172
:1008100081EA030101F000414FF0000070BD50EA91
:10082000410606BF1046194652EA430619D094EA1B
:100830000C0F02D150EA013613D195EA0C0F05D105
:1008400052EA03361CBF104619460AD181EA030159
:1008500001F0004141F0FE4141F470014FF0000011
:1008600070BD41F0FE4141F4780170BD70B54FF0AC
:10087000FF0C4CF4E06C1CEA11541DBF1CEA13552C
:1008800094EA0C0F95EA0C0F00F0A7F8A4EB05040E
:1008900081EA030E52EA03354FEA013100F0888005
:1008A0004FEA03334FF0805545EA131343EA1263CE
:1008B0004FEA022245EA111545EA10654FEA002683
:1008C0000EF000419D4208BF964244F1FD0404F53C
:1008D000407402D25B084FEA3202B61A65EB030598
:1008E0005B084FEA32024FF480104FF4002CB6EB55
:1008F000020E75EB030E22BFB61A754640EA0C00D5
:100900005B084FEA3202B6EB020E75EB030E22BF14
:10091000B61A754640EA5C005B084FEA3202B6EB55
:10092000020E75EB030E22BFB61A754640EA9C0014
:100930005B084FEA3202B6EB020E75EB030E22BFE4
:10094000B61A754640EADC0055EA060E18D04FEAA2
:10095000051545EA16754FEA06164FEAC30343EA42
:1009600052734FEAC2025FEA1C1CC0D111F4801F0F
:100970000BD141EA00014FF000004FF0004CB6E708
:1009800011F4801F04BF01430020B4F1FD0C88BFA7
:10099000BCF5E06F3FF6AFAEB5EB030C04BFB6EBB2
:1009A000020C5FEA500C50F1000041EB045170BDA5
:1009B0000EF0004E4EEA113114EB5C04C2BFD4EBD2
:1009C0000C0541EA045170BD41F480114FF0000E56
:1009D000013C90E645EA060E8DE60CEA135594EAD2
:1009E0000C0F08BF95EA0C0F3FF43BAF94EA0C0FD5
:1009F0000AD150EA01347FF434AF95EA0C0F7FF44A
:100A000025AF104619462CE795EA0C0F06D152EA9D
:100A100003353FF4FDAE1046194622E750EA410681
:100A200018BF52EA43067FF4C5AE50EA41047FF492
:100A30000DAF52EA43057FF4EBAE12E74FF0FF3CF7
:100A400006E000BF4FF0010C02E000BF4FF0010CC8
:100A50004DF804CD4FEA410C7FEA6C5C4FEA430C41
:100A600018BF7FEA6C5C1BD001B050EA410C0CBF90
:100A700052EA430C91EA030F02BF90EA020F0020F2
:100A8000704710F1000F91EA030F58BF994208BF59
:100A900090422CBFD8176FEAE37040F00100704716
:100AA0004FEA410C7FEA6C5C02D150EA013C07D16D
:100AB0004FEA430C7FEA6C5CD6D152EA033CD3D0B8
:100AC0005DF8040B704700BF8446104662468C46B2
:100AD0001946634600E000BF01B5FFF7B7FF0028E5
:100AE00048BF10F1000F01BD4DF808EDFFF7F4FF0E
:100AF0000CBF012000205DF808FB00BF4DF808ED99
:100B0000FFF7EAFF34BF012000205DF808FB00BFBB
:100B10004DF808EDFFF7E0FF94BF012000205DF8DD
:100B200008FB00BF4DF808EDFFF7CEFF94BF012092
:100B300000205DF808FB00BF4DF808EDFFF7C4FF8B
:100B400034BF012000205DF808FB00BF4FEA410CD4
:100B50007FEA6C5C02D150EA013C0AD14FEA430CB7
:100B60007FEA6C5C02D152EA033C02D14FF00000F4
:100B700070474FF0010070474FEA410212F5001232
:100B800015D211D56FF47873B3EB625212D94FEAD4
:100B9000C12343F0004343EA505311F0004F23FABE
:100BA00002F018BF404270474FF00000704750EA13
:100BB000013005D111F0004008BF6FF000407047D0
:100BC0004FF00000704700BF4A0011D212F500122A
:100BD00011D20DD56FF47873B3EB62520ED44FEA95
:100BE000C12343F0004343EA505323FA02F0704715
:100BF0004FF00000704750EA013002D14FF0FF3053
:100C000070474FF0000070474FEA4102B2F1E043F5
:100C100024BFB3F5001CDCF1FE5C0DD901F0004CE3
:100C20004FEAC0024CEA5070B2F1004F40EB830033
:100C300008BF20F00100704711F0804F21D113F15F
:100C40003872BCBF01F00040704741F480114FEA98
:100C50005252C2F11802C2F1200C10FA0CF320FA21
:100C600002F018BF40F001004FEAC1234FEAD3233E
:100C700003FA0CFC40EA0C0023FA02F34FEA4303A8
:100C8000CCE77FEA625307D150EA01331EBF4FF031
:100C9000FE4040F44000704701F0004040F0FE404C
:100CA00040F40000704700BF53B94AB9002908BF9B
:100CB00000281CBF4FF0FF314FF0FF3000F0BEB9ED
:100CC000ADF1080C6DE904CE00F03CF8DDF804E06D
:100CD000DDE9022304B0704738B500220023044642
:100CE0000D46FFF70BFF28B920462946BDE83840DE
:100CF00000F00AB8204605F1004100F005F8404236
:100D000061EB410138BD00BFD0B50C4B0022064657
:100D10000F46FFF781FCFFF757FF0446FFF702FC81
:100D2000074B0022FFF778FC02460B463046394657
:100D3000FFF7BAFAFFF748FF2146D0BD0000F03DAB
:100D40000000F0412DE9F047089D8E460446884694
:100D5000002B4AD18A42174662D9B2FA82F64EB1C6
:100D6000C6F1200301FA06F820FA03F3B74043EA7C
:100D70000808B4404FEA174E1FFA87FCB8FBFEF193
:100D8000230C0EFB118843EA084301FB0CF29A4244
:100D900009D9FB1801F1FF3080F0EA809A4240F255
:100DA000E78002393B449A1AA3B2B2FBFEF00EFB75
:100DB000102243EA024300FB0CFC9C4509D9FB18B6
:100DC00000F1FF3280F0D6809C4540F2D3803B4456
:100DD000023840EA0140A3EB0C0300211DB1F340AF
:100DE0000022C5E90032BDE8F0878B4205D90DB17C
:100DF000C5E9000100210846F5E7B3FA83F10029AF
:100E000046D1734502D3824200F20581841A6EEB0B
:100E1000030201209046002DE5D0C5E90048E2E735
:100E2000002A00F09080B2FA82F6002E40F0A480F2
:100E30008A1A030C4FEA174E80B2BCB20121B2FBF2
:100E4000FEFC0EFB1C2243EA024304FB0CF29A4216
:100E500007D9FB180CF1FF3802D29A4200F2E08069
:100E6000C4469B1AB3FBFEF20EFB123340EA034367
:100E700002FB04F49C4207D9FB1802F1FF3002D2B6
:100E80009C4200F2CA8002461B1B42EA0C40A5E7C6
:100E9000C1F120068B4022FA06F71F430EFA01F437
:100EA00020FA06F32EFA06FE4FEA1749234300FA0A
:100EB00001F81FFA87FCBEFBF9F01C0C09FB10EED1
:100EC00044EA0E4400FB0CFEA64502FA01F209D9E1
:100ED0003C1900F1FF3A80F09C80A64540F29980D1
:100EE00002383C44A4EB0E041FFA83FEB4FBF9F372
:100EF00009FB13444EEA044403FB0CFCA44508D947
:100F00003C1903F1FF3E80F08280A4457FD9023B6B
:100F10003C4443EA0040A4EB0C04A0FB02EC644513
:100F20007346E14662D35FD05DB1B8EB030264EB78
:100F3000090404FA06F622FA01F31E43CC40C5E97F
:100F4000006400214FE7B1FBF2FC010C41EA0E41C5
:100F500080B240EA01423B4638463C46B846BE466F
:100F60002026B1FBF7F1A2EB080241EA0C4166E74B
:100F7000014618E710462CE7C6F120022EFA02F3CC
:100F8000B740B14020FA02F24FEA174E0A43B3FBD2
:100F9000FEF8BCB20EFB1833110C41EA034108FB0A
:100FA00004F9B04089454FEA104380B23ED9791820
:100FB00008F1FF3C01D289451FD8A1EB0901B1FB23
:100FC000FEF909FB04F80EFB191192B242EA014244
:100FD000424529D2BA1809F1FF31C4D24245C2D2E2
:100FE000A9F102013A44BEE7F0459DD2BEEB0203EF
:100FF0006CEB070C0138E14696E7A7EB0909494479
:10100000A8F1020CB1FBFEF909FB04F8DBE773461B
:101010007FE7504666E70846FDE63B44023A33E781
:10102000ACF1020C3B441CE749469CE7A1EB0901EB
:10103000C446B1FBFEF909FB04F8C4E7704700BFE2
:1010400080B582B000AF264B9B6C254A43F002036B
:101050009364234B9B6C03F002037B607B68204B03
:101060009B6C1F4A43F0010393641D4B9B6C03F080
:1010700001033B603B68002200210C2002F051FF7D
:101080000C2002F06AFF002200210D2002F049FF2F
:101090000D2002F062FF002200210E2002F041FF2D
:1010A0000E2002F05AFF002200210F2002F039FF2B
:1010B0000F2002F052FF00220021442002F031FFF5
:1010C000442002F04AFF00220021452002F029FFBF
:1010D000452002F042FF00BF0837BD4680BD00BF7B
:1010E0000010024080B588B000AF07F10C03002269
:1010F0001A605A609A60DA601A61384BDB6C374AC2
:1011000043F08003D364354BDB6C03F08003BB609A
:10111000BB68324BDB6C314A43F00103D3642F4B85
:10112000DB6C03F001037B607B682C4BDB6C2B4A90
:1011300043F00203D364294BDB6C03F002033B60F2
:101140003B68002203214FF0904003F041FB012255
:1011500010214FF0904003F03BFB012241F20101CE
:101160001F4803F035FB1323FB6001233B61012380
:101170007B610223BB6107F10C0319464FF09040DD
:1011800003F094F941F20103FB6001233B6100236A
:101190007B610223BB6107F10C031946104803F081
:1011A00085F90623FB6000233B6102237B6107F185
:1011B0000C0319460A4803F079F940F61843FB601E
:1011C00000233B6101237B6107F10C0319460448AE
:1011D00003F06CF900BF2037BD4680BD001002400F
:1011E0000004004890B587B002AF02F026FD00F081
:1011F000D7F8FFF777FFFFF723FF01F077FB00F049
:1012000013FF07F0C9FA00F0D1FE01F0F7FA01F080
:10121000A7FA474805F084FA464805F081FA02F03B
:10122000FDFB00F0ABF90346002B34D1012242490B
:1012300042480BF057F803461A46414B1A70404B90
:101240001B78002B01D000F0FAF83E4B1B681846C3
:1012500000F04FFC0346002B01D000F03BFE00F0F5
:1012600061FCF860384B1A68FB6800931346374AF4
:10127000142137480DF02CFB0622354935480BF078
:1012800077F8354C3B46184600F050FE23463A4668
:101290001068516803C340223049314805F06EFFA1
:1012A0002F4B1B681A682E4B1B6842F010021A6005
:1012B000012202214FF0904003F08AFA02F00CFB69
:1012C000284B1B889BB2002B19D001F0F9FC034678
:1012D000FB72FB7A002B0BD101F0E6FD0346BB72DB
:1012E000BB7A002B0BD0BB7A184602F02BFB06E032
:1012F000FB7A062B03D0FB7A184602F023FB1A4B2D
:101300001B889BB2012BD9D101F02AFC0346002B8C
:10131000D4D102F033FA154B1B881A46144B1549E9
:101320000C480BF077FC0B480BF028FEC6E700BF1B
:101330002409002070090020A81F01088002002055
:10134000140700200000002004000020AC1F01084A
:1013500024070020B8040020180700203C020020C9
:10136000BC0900207E0200202E0000203400002056
:10137000100700201C0F002080B584B000AFF8607B
:10138000B9607A607B689AB26423B968034805F053
:10139000EFFD7B6818461037BD4680BDBC090020B4
:1013A00080B596B000AF07F114034422002118461F
:1013B0000DF043FB3B4600221A605A609A60DA60E7
:1013C0001A614FF4007003F043FA0346002B01D07A
:1013D00000F035F801237B614FF4A023BB610223A9
:1013E000FB6303233B6401237B641423BB64072357
:1013F000FB6402233B6502237B6507F11403184657
:1014000003F07CFA0346002B01D000F018F80F23FC
:101410003B6003237B600023BB600023FB60002351
:101420003B613B460421184603F07CFE0346002B3B
:1014300001D000F004F800BF5837BD4680BD80B52C
:1014400000AF72B600BF00F006F84FF47A7002F0F9
:1014500069FC00BFF7E780B500AF01214FF0904075
:1014600003F0CEF94FF47A7002F05CFC01214FF0EA
:10147000904003F0C5F900BF80BD000080B586B084
:1014800002AF0346FB7107F10F02F91D64230093BD
:101490000123044804F049FCFB7B18461037BD4685
:1014A00080BD00BF9C07002080B582B000AF012244
:1014B0004FF48051094803F08BF90023FB7105E0DC
:1014C000FF20FFF7DBFFFB790133FB71FB79092B71
:1014D000F6D900BF00BF0837BD4680BD00040048F4
:1014E00080B584B000AF03463960FB711346BB7111
:1014F0000023FB73FF20FFF7C1FF0346FB73FB7B59
:10150000FF2BF7D1FB7943F04003DBB21846FFF71E
:10151000B5FF3B681B0EDBB21846FFF7AFFF3B6819
:101520001B0CDBB21846FFF7A9FF3B681B0ADBB2B6
:101530001846FFF7A3FF3B68DBB21846FFF79EFF94
:10154000BB7943F00103DBB21846FFF797FF002396
:10155000FB73FF20FFF792FF0346BB73FB7B013356
:10156000FB7397F90E30002B02DAFB7BFF2BF0D1D7
:10157000BB7B18461037BD4680BD000090B585B0D6
:1015800000AF3B1D00221A609A80FFF78DFF0022FA
:101590004FF480517A4803F01BF94FF47A73FB81C2
:1015A000952200210020FFF79BFF03463B73FB8938
:1015B000013BFB813B7B012B02D0FB89002BEFD150
:1015C000FB89002B07D101224FF480516C4803F0B6
:1015D000FFF80123D0E06B4B00221A7087224FF4F2
:1015E000D5710820FFF77CFF03463B733B7B012B43
:1015F00061D100237B730DE07C7BFF20FFF73EFF72
:1016000003461A4604F110033B4403F80C2C7B7B81
:1016100001337B737B7B032BEED9BB79012B40F02D
:101620009880FB79AA2B40F094804FF6FE73FB81E3
:10163000002200213720FFF753FF00224FF08041A6
:101640002920FFF74DFF03463B733B7B002B04D063
:10165000FB895A1EFA81002BEAD1002200213A2090
:10166000FFF73EFF03463B73FB89002B71D03B7BAA
:10167000002B6ED100237B730DE07C7BFF20FFF7F6
:10168000FDFE03461A4604F110033B4403F80C2CFC
:101690007B7B01337B737B7B032BEED93B7903F0A0
:1016A0004003002B03D0374B06221A7051E0354B14
:1016B00004221A704DE0002200213720FFF710FFAE
:1016C000002200212920FFF70BFF03463B733B7BE1
:1016D000012B1AD82B4B02221A704FF6FE73FB8196
:1016E000002200213720FFF7FBFE002200212920E5
:1016F000FFF7F6FE03463B733B7B002B1AD0FB89BA
:101700005A1EFA81002BEBD114E01E4B01221A70F5
:101710004FF6FE73FB81002200210120FFF7E0FE5F
:1017200003463B733B7B002B04D0FB895A1EFA8196
:10173000002BF0D1FB89002B08D000224FF4007160
:101740001020FFF7CDFE0346002B02D00D4B0022E8
:101750001A7001224FF48051094803F039F80A4BFE
:101760000822DA61084804F03DFA064B1B78002B8A
:1017700001D0002300E0012318461437BD4690BD78
:1017800000040048200700209C07002080B584B09A
:1017900000AF78600B467B8000224FF480511748E1
:1017A00003F016F8FF20FFF769FE0346FB73642081
:1017B00002F0B8FAFB7BFE2BF4D109E0FF20FFF723
:1017C0005DFE03461A467B681A707B6801337B60B6
:1017D0007B885A1E7A80002BF0D1FF20FFF74EFE47
:1017E000FF20FFF74BFE01224FF48051034802F027
:1017F000EFFF002318461037BD4680BD00040048A7
:1018000080B584B000AF78600B46FB70FF20FFF717
:1018100035FE03467B737B7BFF2BF7D1FB781846A5
:10182000FFF72CFEFB78FD2B22D00023FB8109E083
:10183000FB897A6813441B781846FFF71FFEFB8963
:101840000133FB81FB89B3F5007FF1D3FF20FFF764
:1018500015FEFF20FFF712FEFF20FFF70FFE0346E5
:10186000FB81FB8903F01F03052B01D0022300E05D
:10187000002318461037BD4680BD000080B586B0F5
:1018800000AFF860B9601346FB7100224FF480513D
:10189000244802F09DFF244B1B78062B02D0BB6826
:1018A0005B02BB60FB79012B11D10022B9681120CA
:1018B000FFF716FE0346FB75FB7D002B27D14FF487
:1018C0000071F868FFF762FF0346FB751FE0002216
:1018D000B9681220FFF704FE0346FB754FF4007150
:1018E000F868FFF753FF0346FB75FB6803F50073C9
:1018F000FB60FB79013BFB71FB79002B02D0FB7D88
:10190000002BEBD0002200210C20FFF7E9FD012283
:101910004FF48051034802F05BFFFB7D18461837F7
:10192000BD4680BD000400482007002080B586B079
:1019300000AFF860B9601346FB7100224FF480518C
:101940002D4802F045FF2D4B1B78062B02D0BB68BB
:101950005B02BB60FB79012B10D10022B968182013
:10196000FFF7BEFD0346FB75FB7D002B38D1FE2142
:10197000F868FFF745FF0346FB7531E01F4B1B7806
:10198000012B0AD0002200213720FFF7A9FDFB79A7
:10199000002219461720FFF7A3FD0022B96819207D
:1019A000FFF79EFD0346FB75FB7D002B18D1FC2144
:1019B000F868FFF725FF0346FB75FB6803F5007326
:1019C000FB60FB79013BFB71FB79002B02D0FB7DB7
:1019D000002BECD0FD210020FFF712FF0346FB7522
:1019E00001224FF48051044802F0F2FEFB7D1846BC
:1019F0001837BD4680BD00BF000400482007002006
:101A000080B584B000AF786000224FF48051104858
:101A100002F0DEFE002200210920FFF761FD0346EF
:101A2000002B05D110217868FFF7B0FE0346FB7349
:101A300001224FF48051064802F0CAFEFB7B002BC6
:101A400001D0012300E0002318461037BD4680BDB9
:101A50000004004880B586B000AF3B461846FFF74B
:101A6000CFFF0346002B01D000233EE03B7803F07C
:101A7000C003402B0CD17B7A1A463B7A1B029BB2E7
:101A800013449BB201333B823B8A9B027B612BE078
:101A90007B7903F00F03DAB2BB7ADB09DBB21344C4
:101AA000DAB27B7A5B00DBB203F00603DBB21344ED
:101AB000DBB20233FB743B7A9B09DBB21A46FB793B
:101AC0009B009BB213449AB2BB799B029BB203F476
:101AD00040639BB213449BB201333B823A8AFB7C46
:101AE000093B02FA03F37B617B6918461837BD4650
:101AF00080BD80B5CAB000AF07F59473A3F59273AB
:101B0000186007F1080207F59473A3F59273114664
:101B100018680BF0C5FC0346184607F59477BD46D8
:101B200080BD000080B5E4B000AF544B1B68B3F13A
:101B3000FF3F40F09680524B1B68C7F88031D7F8C2
:101B40008001FEF7A5FBC7F87C014FF0FF33C7F813
:101B50008C313B464B4918460BF06CFB0346002B7F
:101B600079D163E007F150031A33C7F87831D7F819
:101B70007801FEF78DFBC7F87401D7F87C31093383
:101B8000D7F874219A4251D1D7F87C21D7F8801127
:101B9000D7F878010CF059FF0346002B46D10023FB
:101BA000C7F888310023C7F8843124E0D7F88421AE
:101BB000D7F87C311344D7F8782113441B7887F881
:101BC000733197F873312F2B19D997F87331392B5B
:101BD00015D8D7F8882113469B0013445B001A469A
:101BE00097F87331303B1344C7F88831D7F8843104
:101BF0000133C7F88431D7F88431042BD6DDD7F808
:101C00007C310533D7F8782113441F491846FEF775
:101C1000DFFA0346002B09D1D7F88821D7F88C3199
:101C20009A4203DDD7F88831C7F88C3107F15002AA
:101C30003B46114618460BF0E1FB0346002B06D14C
:101C400007F5C873A3F5A0739B7E002B8AD13B4692
:101C500018460BF0ADFBD7F88C3123EAE373074A43
:101C60001360064B1B680133044A1360034B1B6867
:101C7000184607F5C877BD4680BD00BF08000020A4
:101C800004000020C81F0108CC1F010890B5ADF565
:101C90001D7D00AF07F51C73A3F51B7318600A4682
:101CA00007F51C73A3F26E231A801D4B196807F108
:101CB0001003012218460AF05BFB034687F86F32D7
:101CC00097F86F32002B24D107F51C73A3F26E2313
:101CD0001B88013B1C4607F10C0307F51C72A2F59B
:101CE0001B7107F11000224609680AF01BFE07F578
:101CF0001C73A3F519731B6807F51C72A2F51B7200
:101D00001268134400221A7007F1100318460BF0F2
:101D100067FA97F86F32184607F51D77BD4690BDF4
:101D20000000002080B586B000AF78603960474B76
:101D30001B889BB23B81464B1B887B81454B1B8894
:101D4000BB81454B1B88FB81444938680CF08FFEF2
:101D500038613B69002B07D17B681A4607F10803FD
:101D600003CB106051606CE03B690A337B6159E042
:101D70000C223B4978690CF068FE0346002B09D120
:101D80007B690D337B6178690BF033FD03469BB2B1
:101D90003B8138E00622334978690CF056FE034651
:101DA000002B09D17B6907337B6178690BF021FD3A
:101DB00003469BB27B8126E007222B4978690CF011
:101DC00044FE0346002B09D17B6908337B617869A7
:101DD0000BF00FFD03469BB2BB8114E005222349A3
:101DE00078690CF032FE0346002B0CD17B69063378
:101DF0007B6178690BF0FDFC03469BB2FB8102E03E
:101E00007B6901337B617B691B780A2B03D07B697B
:101E10001B78002BF4D17B691B780A2B02D17B69DC
:101E200001337B617B691B78002B03D07B691B78B6
:101E30005B2B9DD17B681A4607F1080303CB10602A
:101E4000516078681837BD4680BD00BF2200002071
:101E5000100000201200002014000020D41F0108F0
:101E6000E01F0108F01F0108F81F01080020010809
:101E700080B582B000AF78607B681A88114B1A80F9
:101E80007B685A88104B1A807B689A880F4B1A809F
:101E90007B68DA880E4B1A800B4B1B881946012091
:101EA00000F02AFE094B1B881946022000F024FE90
:101EB000074B1B881946042000F01EFE00BF0837A0
:101EC000BD4680BD2200002010000020120000202E
:101ED0001400002080B5ADF51A7D00AF114B1968D4
:101EE00007F108030A2218460AF042FA0346002BBB
:101EF00013D10D4BC7F86432D7F86402FEF7C8F966
:101F000002463B1D07F10800D7F864120AF082FE72
:101F100007F1080318460BF063F900BF07F51A77BD
:101F2000BD4680BD000000200820010880B596B0A5
:101F300000AFF860194B1B889BB23B82184B1B8883
:101F40007B82184B1B88BB82174B1B88FB8207F1D7
:101F5000180340211846FFF799FE0346002B11D1C4
:101F60003B4607F1180211461846FFF7DBFE07F162
:101F700010033A461068516803C307F1100318466E
:101F8000FFF776FFFB681A4607F1100303CB1060DA
:101F90005160F8685837BD4680BD00BF2200002060
:101FA00010000020120000201400002080B500AFB7
:101FB0001B4B1C4A1A601A4B4FF482725A60184B22
:101FC00000229A60164B4FF4E062DA60144B002254
:101FD0001A61134B00225A61114B4FF400729A613F
:101FE0000F4B0822DA610E4B00221A620C4B0022C2
:101FF0005A620B4B00229A62094B0722DA62084BA5
:1020000000221A63064B08225A63054803F0EAFDD2
:102010000346002B01D0FFF712FA00BF80BD00BFBE
:10202000380700200030014080B500AF1B4B1C4A30
:102030001A601A4B4FF482725A60184B00229A6051
:10204000164B4FF4E062DA60144B00221A61134B16
:1020500000225A61114B4FF400729A610F4B3822E3
:10206000DA610E4B00221A620C4B00225A620B4BB3
:1020700000229A62094B0722DA62084B00221A6397
:10208000064B08225A63054803F0ACFD0346002BBB
:1020900001D0FFF7D4F900BF80BD00BF9C0700202E
:1020A0000038004080B58CB000AF786007F11C03A9
:1020B00000221A605A609A60DA601A617B681B68B5
:1020C0009B4A934240F095809A4B1B6E994A43F489
:1020D00080531366974B1B6E03F48053BB61BB693F
:1020E000944BDB6C934A43F00103D364914BDB6C5C
:1020F00003F001037B617B69A023FB6102233B6248
:1021000000237B620323BB620523FB6207F11C03F0
:1021100019464FF0904002F0C9F94023FB610223B9
:102120003B6201237B620323BB620523FB6207F151
:102130001C0319464FF0904002F0B8F97E4B7F4ADD
:102140001A607D4B01225A607B4B00229A607A4BC9
:102150000022DA60784B80221A61774B00225A61A4
:10216000754B00229A61744B0022DA61724B002297
:102170001A62714801F018FF0346002B01D0FFF7E7
:102180005EF97B686C4A9A656B4A7B6893626C4B1C
:102190006C4A1A606A4B01225A60694B10229A609D
:1021A000674B0022DA60664B80221A61644B002282
:1021B0005A61634B00229A61614B0022DA61604BE5
:1021C00000221A625E4801F0EFFE0346002B01D0A8
:1021D000FFF735F97B685A4A5A65594A7B6893621A
:1021E00000220021232001F09CFE232001F0B5FEF7
:1021F00099E07B681B68544A934240F094804D4BB1
:102200009B6D4C4A43F4804393654A4B9B6D03F4AA
:1022100080433B613B69474BDB6C464A43F002031A
:10222000D364444BDB6C03F00203FB60FB684FF4A8
:102230002043FB6102233B6200237B620323BB62DA
:102240000523FB6207F11C031946404802F02EF9F2
:102250004FF48043FB6102233B6201237B62032333
:10226000BB620523FB6207F11C031946374802F0E5
:102270001DF9374B374A1A60354B01225A60344BEF
:1022800000229A60324B0022DA60314B80221A61C0
:102290002F4B00225A612E4B00229A612C4B0022B8
:1022A000DA612B4B00221A62294801F07DFE0346B9
:1022B000002B01D0FFF7C3F87B68254A9A65244AB2
:1022C0007B689362244B254A1A60234B01225A6093
:1022D000214B10229A60204B0022DA601E4B802294
:1022E0001A611D4B00225A611B4B00229A611A4B46
:1022F0000022DA61184B00221A62174801F054FEDE
:102300000346002B01D0FFF79AF87B68124A5A6502
:10231000114A7B68936200220021242001F001FE13
:10232000242001F01AFE00BF3037BD4680BD00BF3B
:102330000030014000100240000800201C00024054
:1023400048080020300002400038004000040048E7
:102350009008002044000240D808002058000240A5
:1023600080B483B000AF0F4B1B6E0E4A43F00103E5
:1023700013660C4B1B6E03F001037B607B68094BFB
:102380009B6D084A43F080539365064B9B6D03F0A9
:1023900080533B603B6800BF0C37BD465DF8047B53
:1023A000704700BF0010024080B400AF00BFFDE7DF
:1023B00080B400AF00BFFDE780B400AF00BFFDE711
:1023C00080B400AF00BFFDE780B400AF00BFFDE701
:1023D00080B400AF00BFBD465DF8047B704780B499
:1023E00000AF00BFBD465DF8047B704780B400AF0E
:1023F00000BFBD465DF8047B704780B500AF01F0BB
:1024000071FC01F0C4FD00BF80BD000080B500AFCD
:10241000024801F060FF00BF80BD00BF000800203F
:1024200080B500AF024801F056FF00BF80BD00BF7D
:102430004808002080B500AF024801F04CFF00BF03
:1024400080BD00BF9008002080B500AF024801F0B9
:1024500042FF00BF80BD00BFD8080020B0B500AF6C
:102460000C4804F0B1F90B4B1B681B6903F0010326
:10247000012B0CD1074B1B686FF001021A61064B50
:10248000D3E900235D1C1446034BC3E9004500BF9C
:10249000B0BD00BF24090020000F002080B500AFB0
:1024A000024803F061FE00BF80BD00BF3807002076
:1024B00080B500AF024803F057FE00BF80BD00BFEB
:1024C0009C07002080B500AF304804F055FF2F4B2B
:1024D0001B68DB6903F01003102B55D12B4B1B68D5
:1024E00010221A62294804F095FE284B5B6F1B6886
:1024F0005B689BB2C3F140039AB2254B1A8072B657
:1025000000BF244B1A68244B1B689A421AD0224BF6
:102510001B681F4A128892B21344204A934211D872
:102520001D4B1B681A4A128892B21D4918460CF0BE
:102530003CFB174B1B889AB2174B1B681344164A77
:10254000136012E0124B1B889BB21A4614491548BF
:102550000CF02BFB0F4B134A1A600E4B1B680C4AF6
:10256000128892B213440C4A136062B600BF084B43
:102570001B889BB2002B02D00B4B01221A804022F9
:102580000749024804F0FAFD00BF80BDBC090020E5
:102590007C0200201C00002018000020E80E002013
:1025A0003C020020E80A00207E02002080B500AF37
:1025B000024804F009F900BF80BD00BF7009002087
:1025C00080B500AF024801F086FE00BF80BD00BFAD
:1025D0008C0A002080B500AF024801F07CFE00BFED
:1025E00080BD00BF440A002080B400AF012318461C
:1025F000BD465DF8047B704780B582B000AF78605F
:1026000039600CF0A5FA034616221A604FF0FF332A
:1026100018460837BD4680BD80B582B000AF7860EF
:102620004FF0FF317868FFF7E7FF00BFFDE780B5A7
:1026300086B000AFF860B9607A6000237B610AE081
:10264000AFF300800146BB685A1CBA60CAB21A7068
:102650007B6901337B617A697B689A42F0DB7B6836
:1026600018461837BD4680BD80B483B000AF78608F
:102670004FF0FF3318460C37BD465DF8047B7047BA
:1026800080B483B000AF786039603B684FF400528B
:102690005A60002318460C37BD465DF8047B70472E
:1026A00080B483B000AF7860012318460C37BD4674
:1026B0005DF8047B704780B485B000AFF860B96006
:1026C0007A60002318461437BD465DF8047B7047D6
:1026D00080B586B000AF7860144A154BD31A7B6181
:1026E0007B693B61134B1B68002B02D1114B124AD3
:1026F0001A60104B1A687B6813443A699A4207D2F1
:102700000CF026FA03460C221A604FF0FF3309E062
:10271000084B1B68FB60074B1A687B681344054A2B
:102720001360FB6818461837BD4680BD00C0002006
:1027300000040000200900207021002080B400AFB8
:10274000064BD3F88830054A43F47003C2F888304A
:1027500000BFBD465DF8047B704700BF00ED00E0A0
:1027600080B588B000AF07F1100300221A605A60EC
:102770009A60DA603B1D00221A605A609A601E4B14
:102780004FF080421A601C4B4F225A601A4B0022B5
:102790009A60194B4FF0FF32DA60174B00221A6132
:1027A000154B00229A61144803F062FF0346002B88
:1027B00001D0FEF744FE4FF480533B6107F1100354
:1027C00019460D4804F007F90346002B01D0FEF727
:1027D00036FE00237B600023FB603B1D1946064844
:1027E00004F0F4FA0346002B01D0FEF728FE00BFE8
:1027F0002037BD4680BD00BF2409002080B584B0CD
:1028000000AF3B1D00221A605A609A60154B164AB1
:102810001A60144B41F63F725A60124B00229A60C4
:10282000104B4CF24F32DA600E4B00229A610D4889
:1028300003F01EFF0346002B01D0FEF700FE00232D
:102840007B600023FB603B1D1946064804F0BEFA7E
:102850000346002B01D0FEF7F2FD00BF1037BD4646
:1028600080BD00BF700900200010004080B584B01A
:1028700000AF78607B681B68B3F1804F14D1194BAF
:102880009B6D184A43F001039365164B9B6D03F053
:102890000103FB60FB68002200211C2001F041FBCA
:1028A0001C2001F05AFB18E07B681B680E4A93421B
:1028B00013D10C4B9B6D0B4A43F010039365094BEE
:1028C0009B6D03F01003BB60BB6800220021362023
:1028D00001F027FB362001F040FB00BF1037BD465A
:1028E00080BD00BF001002400010004080B500AF66
:1028F000144B154A1A60134B4FF416425A60114B91
:1029000000229A600F4B0022DA600E4B00221A61FF
:102910000C4B0C225A610B4B00229A61094B00228E
:10292000DA61084B00221A62064B00225A620548FF
:1029300004F0D0FA0346002B01D0FEF780FD00BF63
:1029400080BD00BFBC0900200038014080B5A2B0A6
:1029500000AF786007F1740300221A605A609A6031
:10296000DA601A6107F114036022002118460CF0A6
:1029700064F87B681B684F4A934240F096800123BD
:102980007B6100237B6307F11403184602F0EEFD20
:102990000346002B01D0FEF752FD474B1B6E464A03
:1029A00043F480431366444B1B6E03F480433B6146
:1029B0003B69414BDB6C404A43F00103D3643E4B1F
:1029C000DB6C03F00103FB60FB684FF4C0637B67C3
:1029D0000223BB670123FB670323C7F8803007236B
:1029E000C7F8843007F1740319464FF0904001F0A6
:1029F0005DFD324B324A1A60304B02225A602F4B37
:102A000000229A602D4B0022DA602C4B80221A6142
:102A10002A4B00225A61294B00229A61274B20221F
:102A2000DA61264B4FF400521A62244801F0BCFAD6
:102A30000346002B01D0FEF702FD7B681F4A5A6750
:102A40001E4A7B6893621F4B1F4A1A601D4B02226D
:102A50005A601C4B10229A601A4B0022DA60194B04
:102A600080221A61174B00225A61164B00229A618C
:102A7000144B0022DA61134B4FF400521A621148D2
:102A800001F092FA0346002B01D0FEF7D8FC7B68D8
:102A90000C4A1A670B4A7B689362002200212520AA
:102AA00001F03FFA252001F058FA00BF8837BD46F3
:102AB00080BD00BF0038014000100240440A0020E1
:102AC000800402408C0A00206C04024080B586B06D
:102AD00002AF0346FB7107F10F02F91D6423009357
:102AE0000123044803F021F9FB7B18461037BD464B
:102AF00080BD00BF3807002080B582B000AF03461C
:102B00000A46FB711346BB8000220121134801F0E5
:102B10005FFEFB791846FFF7D9FF0020FFF7D6FFCD
:102B20000020FFF7D3FF0020FFF7D0FF0020FFF7C2
:102B3000CDFFBB881B0A9BB2DBB21846FFF7C6FF6E
:102B4000BB88DBB21846FFF7C1FF01220121034811
:102B500001F03EFE00BF0837BD4680BD00040048BE
:102B6000F0B583B000AF0421334801F019FE0346ED
:102B7000012B07D1012201214FF0904001F028FEE6
:102B8000012355E0002201214FF0904001F020FE8A
:102B900000220121284801F01BFE80237B717B79F4
:102BA0001846FFF793FF0023FB800AE0FE88002011
:102BB000FFF78CFF03461A46204B9A55FB880133DA
:102BC000FB80FB88052BF1D91C4B1B78DB08DBB2A3
:102BD0000133DAB21A4B1A70184B5B785B08DBB220
:102BE0001AB2164B1B781BB2DB011BB203F46073E5
:102BF0001BB213431BB29AB2124B1A800F4B9B7835
:102C00001A060E4BDB781B041A430C4B1B791B0274
:102C100013430A4A52791343DA171C4615460A4BE6
:102C2000C3E9004501220121034801F0D1FD002341
:102C300018460C37BD46F0BD00040048E00A0020ED
:102C4000D40A0020D60A0020D80A002080B483B01D
:102C500000AF78607B681B781BB21B021AB27B68DE
:102C600001331B781BB213431BB29BB218460C37BF
:102C7000BD465DF8047B704790B585B000AF7860C5
:102C80000B467B807B88012B04D87B681B78FB81FB
:102C9000FB8910E07B88013B7A6813441B781C4653
:102CA0007B88013B9BB219467868FFF7E5FF034636
:102CB0002344FB81FB8918461437BD4690BD0000B4
:102CC00080B584B000AF0023FB606C4B1B686C4A7E
:102CD00013606A4B1B686B4A13602BE0674B1B68E1
:102CE0001B781BB21B021AB2644B1B6801331B78A2
:102CF0001BB213431BB2FB80FB884AF6552293425A
:102D000003D15E4B1B685E4A1360FB8847F6FE6288
:102D1000934204D1594B1B6801335A4A1360574BF5
:102D20001B680133554A1360564B1A68544B1B6895
:102D30009A4206D8544B1A68504B1B689A42CDD819
:102D400000E000BF4D4B1A684F4B1B689A4204D1FC
:102D50004E4B00221A8006238CE003233B8112E0B5
:102D6000474B1A683B8913441B781A463B89C3F1C9
:102D70000403DB0002FA03F31A46FB681343FB600B
:102D80003B8901333B813B89042BE9D93C4B1B68D0
:102D9000DA793F4B1A7000237B811BE0384B1B68AC
:102DA00005331B781BB21B021AB2354B1B68063366
:102DB0001B781BB213431BB29AB2364B1A807B8925
:102DC000354A32F81320334B1B889A4206D07B8950
:102DD00001337B817B89032BE0D900E000BF294BC5
:102DE0001B68033B1B781BB21B021AB2254B1B68E6
:102DF000023B1B781BB213431BB2BB80204B1B68EA
:102E00000833264A13601E4B1B680233204A12788F
:102E1000063292B211461846FFF72EFF03467B801A
:102E20001F4B1B889BB21A46FB68934207D1144B79
:102E30001B6802331A781B4B1B789A4201D001237E
:102E400018E0134B1B7819460E4B1A680C4B1B6885
:102E5000D31A0B3B994201D002230BE07B89032B51
:102E600001D9032306E0BA887B889A4201D0042363
:102E700000E0002318461037BD4680BD1C0000202E
:102E8000EC0E0020F00E0020180000207E02002032
:102E9000F80E0020E80E002024000020F40E002090
:102EA000220000202000002080B500AF204B1B88AE
:102EB000012B21D11F4B1B78012B0BD11E4B1B6803
:102EC0001B78012B06D100F03BF81C4B00221A8026
:102ED00000232AE0174B1B78012B0BD1164B1B68E4
:102EE0001B78002B06D100F02BF8144B01221A801E
:102EF00000231AE0052318E00D4B1B88032B03D198
:102F000000F076F8002310E0094B1B88042B09D150
:102F1000084B1B78002B01D0052306E000F068F871
:102F2000002302E000F0D8FA0023184680BD00BF5D
:102F3000E80E0020F80E0020F40E00202E000020E5
:102F400080B582B000AF264B1A68264B1B68D31A97
:102F50009BB201337B800023BB8033E0BB88052B11
:102F600004D1BB88204A0121D15428E0BA887B884B
:102F7000043B9A4210D1BB88023B9BB219461B48C6
:102F8000FFF77AFE0346FB80FB881B0A9AB2BB88D8
:102F9000D1B2154AD15412E0BA887B88033B9A42D9
:102FA00005D1BB88FA88D1B20F4AD15407E00D4B46
:102FB0001A68BB881A44BB8811780B4AD154BB8865
:102FC0000133BB80BA887B889A42C7D37B88194675
:102FD000054800F045FD00BF0837BD4680BD00BF75
:102FE000F00E0020EC0E00207C1F00207E1F002031
:102FF00090B5ADF52F7D02AF6B4B1B88032B40F0D6
:103000008B806A4B1B681B781BB21B021AB2674B82
:103010001B6801331B781BB213431BB2A7F8AC32F9
:10302000634AB7F8AC321380604B1B680233184612
:10303000FFF70CFE03461A465E4B1A805B4B1B687B
:1030400004331846FFF702FE03461A465A4B1A800D
:10305000564B1B6806331846FFF7F8FD03461A4621
:10306000564B1A80534B1B8819460120FFF744FD2D
:10307000514B1B8819460220FFF73EFD4F4B1B8822
:1030800019460420FFF738FD3B4640211846FEF75D
:10309000FDFD0346002B13D1454B1B889BB21946FF
:1030A000444B1B881C46444B1B881A46434B1B88C9
:1030B00038460193009223460A4641490BF03EFCF4
:1030C000404B196807F140030A22184609F050F9ED
:1030D0003B461846FDF7DCF8024607F527733946EC
:1030E00007F1400009F096FD07F1400318460AF089
:1030F00077F82E4B1A68344B1B68D31A0833334ABF
:103100007E21D154294B1A682F4B1B68D31A0933DF
:103110002E4AFE21D15443E0FFF722FD2C4B1B88A1
:103120001B0A99B2214B1A68274B1B68D31A063326
:10313000C9B2264AD154264B19881C4B1A68224B17
:103140001B68D31A0733C9B2204AD154214B1B88BC
:103150001B0A99B2154B1A681B4B1B68D31A08330C
:10316000C9B21A4AD1541B4B1988104B1A68164B16
:103170001B68D31A0933C9B2144AD1540B4B1A68CD
:10318000114B1B68D31A0C33104A7E21D154074BC4
:103190001A680D4B1B68D31A0D330C4AFE21D1540B
:1031A0000023A7F8AE32B5E0E80E0020F40E0020B0
:1031B0002200002010000020120000201400002037
:1031C0004420010800000020EC0E00208C1F00208D
:1031D000320000202C000020B7F8AE227D4B196889
:1031E0007D4B1B68CB1A9A4209DA7B4B1A68B7F8F9
:1031F000AE321A44B7F8AE321178784AD154784BCF
:103200001B88032B1BD1B7F8AE32022B0ED9B7F8AF
:10321000AE32042B0AD86F4B1A68B7F8AE32033BB4
:103220001A44B7F8AE3211786C4AD154B7F8AE32BE
:10323000072B04D1B7F8AE32684A0621D154684B47
:103240001B88042B08D1B7F8AE32072B04D1B7F88E
:10325000AE32624A0A21D154B7F8AE32052B04D1FE
:10326000B7F8AE325D4A0121D154B7F8AE22594BBE
:103270001968594B1B68CB1A9A4210D1594B1B88BD
:103280001B0A9AB2B7F8AE32D1B2544AD154554B58
:103290001A88B7F8AE320133D1B2504AD154B7F8D8
:1032A000AE224C4B19684C4B1B68CB1A02339A4226
:1032B00010D14D4B1B881B0A9AB2B7F8AE32D1B26F
:1032C000464AD154484B1A88B7F8AE320133D1B2CE
:1032D000424AD154B7F8AE223E4B19683E4B1B68A8
:1032E000CB1A04339A4210D1404B1B881B0A9AB266
:1032F000B7F8AE32D1B2394AD1543C4B1A88B7F83C
:10330000AE320133D1B2354AD154B7F8AE320133BF
:10331000A7F8AE322F4B1A682F4B1B68D31A5A1DD1
:10332000B7F8AE329A42BFF657AF2C4BDB790C336D
:10333000C7F8A832294BDB790633C7F8A432D7F88F
:10334000A4329BB219462A48FFF796FC0346A7F819
:10335000A232234B1B88032B18D1B7F8A2321B0AC9
:1033600099B21C4B1A681C4B1B68D31A0633C9B29E
:103370001A4AD154174B1A68174B1B68D31A0733D4
:10338000B7F8A222D1B2154AD15417E0B7F8A23249
:103390001B0A99B20F4B1A680F4B1B68D31A0A33DA
:1033A000C9B20E4AD1540B4B1A680B4B1B68D31A87
:1033B0000B33B7F8A222D1B2084AD154D7F8A832B9
:1033C0009BB21946054800F04BFB00BF07F52D776F
:1033D000BD4690BDF40E0020EC0E00208C1F002096
:1033E000E80E002010000020120000201400002031
:1033F0008E1F00202DE9B00383B000AF164BD3E938
:1034000000894FF000024FF000034A4600231346A4
:103410007B604FF080435B6A3B600F4BD3E90089D0
:103420004FF000024FF000034A4600237B689342AE
:10343000E4D13B68002218461146074BD3E900232C
:10344000841841EB030522462B46104619460C37DB
:10345000BD46BDE8B0037047000F002080B582B0C4
:1034600000AFC7E900010849D7E90023C1E90023FB
:10347000FFF7C0FF02460B460449C1E9002300BF25
:103480000837BD4680BD00BF080F0020100F002088
:103490002DE9B04382B000AFFFF7ACFFC7E90001F0
:1034A0000B4BD3E90023D7E90001841A61EB030534
:1034B000084BD3E9002314EB020845EB030942460D
:1034C0004B46104619460837BD46BDE8B08300BFDD
:1034D000100F0020080F00202DE9F04F8BB000AF37
:1034E0004FF000024FF00003C7E908230023FB83DD
:1034F0001BE0D7E908014FF000024FF000030B0278
:1035000043EA1063020253490868F98B01440978C1
:10351000C9B200208846814642EA080A43EA090BFC
:10352000C7E908ABFB8B0133FB83FB8B072BE0D98F
:10353000D7E90801FFF792FF0023BB8311E0464B58
:103540001A68BB8B1A44BB8B1178444AD154BB8B8D
:10355000052B03D1BB8B414A0121D154BB8B0133D5
:10356000BB83BA8B3B4B19683B4B1B68CB1A9A4207
:10357000E5DB3A4BDB7906337B61384BDB790C3387
:103580003B61FFF785FFC7E9020100237B831BE056
:103590007B8BC3F10703D900D7E90223C1F12006D1
:1035A000A1F1200022FA01F403FA06F6344323FACB
:1035B00000F0044323FA01F57B8B0833E1B2274A7C
:1035C000D1547B8B01337B837B8B072BE0D97B69C9
:1035D0009BB219462248FFF74FFB0346FB80FB884E
:1035E0001B0A99B21B4B1A681B4B1B68D31A083372
:1035F000C9B21A4AD154174B1A68174B1B68D31A11
:103600000933FA88D1B2154AD15447F6FE63BB801C
:10361000BB881B0A99B20F4B1A680F4B1B68D31A51
:103620000A33C9B20D4AD1540A4B1A680A4B1B68B7
:10363000D31A0B33BA88D1B2084AD1543B699BB232
:103640001946064800F00CFA00BF2C37BD46BDE80D
:10365000F08F00BFF40E0020EC0E0020AC1F002005
:10366000AE1F002080B582B000AF78607B681B6819
:103670000B4A934206D10B4B1B889BB201339AB283
:10368000084B1A80074B1B889BB2052B04D900F00E
:103690000BF8044B00221A8000BF0837BD4680BDDE
:1036A000001000401A0F002080B582B000AF0E233A
:1036B000FB804AF65523BB8047F6FE637B80BB88C0
:1036C0001B0A9BB2DAB2274B1A70BB88DAB2254BC1
:1036D0005A70254B1A78234B9A70244B1B889BB247
:1036E0001B0A9BB2DAB21F4BDA70204B1B889BB2CD
:1036F000DAB21C4B1A711B4B01225A71194B002272
:103700009A71184B0222DA71194B1B78DAB2154BF9
:103710001A72184B1B889BB2DAB2124B5A720821EC
:103720001548FFF7A9FA03463B803B881B0A9BB26A
:10373000DAB20C4B9A723B88DAB20A4BDA727B88A7
:103740001B0A9BB2DAB2074B1A737B88DAB2054BBD
:103750005A73FB881946034800F082F900BF083706
:10376000BD4680BDC01F0020200000202200002098
:10377000180F00202E000020C21F00202DE9F04F5E
:1037800087B000AF4AF65524BC8247F6FE647C82BF
:10379000BC8A240AA4B2E5B2454C2570BC8AE5B2C5
:1037A000434C6570434C2578414CA570424C2488AD
:1037B000A4B2240AA4B2E5B23D4CE5703E4C248884
:1037C000A4B2E5B23A4C2571394C01256571384CEB
:1037D0000225A571364C0B25E571384C2578344C03
:1037E0002572374C2488240AA4B2E5B2304C6572A5
:1037F000334C2488E5B22E4CA572324CD4E90089B2
:10380000314CD4E9004518EB040049EB05012F4C7D
:10381000D4E90045B0EB040A61EB050BC7E902AB44
:103820000021F9821BE0F98AC1F10701CC00D7E938
:103830000201C4F12006A4F1200520FA04F201FAE5
:1038400006F6324321FA05F52A4321FA04F3F98AF0
:103850000B31D4B216484454F98A0131F982F98AFD
:103860000729E0D911211A48FFF706FA0346FB8021
:10387000FB881B0A9BB2DAB20D4BDA74FB88DAB212
:103880000B4B1A757B8A1B0A9BB2DAB2084B5A752E
:103890007B8ADAB2064B9A750E4B1B881946044890
:1038A00000F0DEF800BF1C37BD46BDE8F08F00BF5A
:1038B0001C0F00202000002022000020D40A00203D
:1038C000D60A0020080F0020D80A0020100F002080
:1038D0001E0F00203400002080B582B000AF164BD0
:1038E0007B60164B1A687B68D31AB3F5007F1EDD28
:1038F000134B1B68104A934219D0114B1B680E4A98
:103900009B1A7B8072B600BF0D4B1B687A881946E4
:1039100009480BF078F8094B1A687B885B4213441E
:10392000064A1360064B044A1A6062B600BF00BF25
:103930000837BD4680BD00BFE80A002018000020FF
:103940001C00002080B584B000AF0346FB714AF62E
:103950005523FB8147F6FE63BB81FB891B0A9BB2A3
:10396000DAB2284B1A70FB89DAB2264B5A70264B12
:103970001A78244B9A70254B1B889BB21B0A9BB26A
:10398000DAB2204BDA70214B1B889BB2DAB21D4BA6
:103990001A711C4BFF225A711D4B1B88DAB2194B4E
:1039A0009A71184B0222DA711A4B1B78DAB2154B56
:1039B0001A72144AFB79537208211748FFF75CF911
:1039C00003467B817B891B0A9BB2DAB20D4B9A724C
:1039D0007B89DAB20B4BDA72BB891B0A9BB2DAB273
:1039E000084B1A73BB89DAB2064B5A730E233B811C
:1039F0003B891946034800F033F800BF1037BD4635
:103A000080BD00BFD01F0020200000202200002029
:103A1000E80E002030000020D21F002080B400AF4C
:103A20000E4B03F580530022A3F840200B4B03F507
:103A300080530022A3F84220084B03F58053002254
:103A400083F84420054B03F58053002283F845207A
:103A500000BFBD465DF8047B704700BF340F0020F7
:103A600080B584B000AF78600B467B807B88002BEC
:103A700009D07B88802B06D8294B03F5805393F817
:103A800044301F2B01D9002345E0254B03F580531B
:103A9000B3F842301A4613469B0113445B00204A98
:103AA0001344FB60FB687A88796818460BF07DF850
:103AB000FB687A88A3F88020194B03F58053B3F88C
:103AC000423001335A4203F01F0302F01F0258BF75
:103AD00053429AB2124B03F58053A3F84220104B85
:103AE00003F5805393F844300133DAB20C4B03F5FD
:103AF000805383F844200A4B03F5805393F84530F4
:103B0000002B07D1064B03F58053012283F8452093
:103B100000F008F8012318461037BD4680BD00BFED
:103B2000340F002080B582B000AF134B03F58053F3
:103B300093F84430002B06D10F4B03F5805300223D
:103B400083F8452015E00C4B03F58053B3F8403063
:103B50001A4613469B0113445B00074A13447B60DB
:103B600079687B68B3F880309BB21A46034803F04B
:103B700089FA0837BD4680BD340F0020BC090020FB
:103B800080B582B000AF78607B681B68144A9342AE
:103B900021D1144B03F58053B3F8403001335A421E
:103BA00003F01F0302F01F0258BF53429AB20D4B9D
:103BB00003F58053A3F840200A4B03F5805393F894
:103BC0004430013BDAB2074B03F5805383F84420BD
:103BD000FFF7A8FF00E000BF0837BD4680BD00BF6B
:103BE00000380140340F0020DFF834D0FEF7A6FD86
:103BF0000C480D490D4A002302E0D458C450043348
:103C0000C4188C42F9D30A4A0A4C002301E013601D
:103C10000432A242FBD30AF0A1FFFDF7E3FAFEE76C
:103C200000C00020000000201C02002018D1030862
:103C3000200200206C210020FEE780B582B000AF9A
:103C40000023FB71032000F061F90F2000F00EF853
:103C50000346002B02D00123FB7101E0FEF780FB3D
:103C6000FB7918460837BD4680BD000080B584B09A
:103C700000AF78600023FB73174B1B78002B23D019
:103C8000164B1A68144B1B7819464FF47A73B3FB22
:103C9000F1F3B2FBF3F3184600F06DF90346002B85
:103CA0000FD17B680F2B09D8002279684FF0FF30C5
:103CB00000F037F90A4A7B68136007E00123FB73C1
:103CC00004E00123FB7301E00123FB73FB7B184637
:103CD0001037BD4680BD00BF3C0000200C00002016
:103CE0003800002080B400AF064B1B781A46064B04
:103CF0001B681344044A136000BFBD465DF8047B93
:103D0000704700BF3C000020E01F002080B400AFDF
:103D1000034B1B681846BD465DF8047B704700BF27
:103D2000E01F002080B584B000AF7860FFF7EEFFA1
:103D3000B8607B68FB60FB68B3F1FF3F05D00A4BBE
:103D40001B781A46FB681344FB6000BFFFF7DEFFD9
:103D50000246BB68D31AFA689A42F7D800BF00BF80
:103D60001037BD4680BD00BF3C00002080B485B048
:103D700000AF78607B6803F00703FB600C4BDB68E7
:103D8000BB60BA684FF6FF031340BB60FB681A02C2
:103D9000BB68134343F0BF6343F40033BB60044A82
:103DA000BB68D36000BF1437BD465DF8047B704725
:103DB00000ED00E080B400AF044BDB681B0A03F0A9
:103DC00007031846BD465DF8047B704700ED00E030
:103DD00080B483B000AF0346FB7197F90730002B26
:103DE0000BDBFB7903F01F02074997F907305B09EA
:103DF000012000FA02F241F8232000BF0C37BD4633
:103E00005DF8047B704700BF00E100E080B483B040
:103E100000AF03463960FB7197F90730002B0ADBCE
:103E20003B68DAB20C4997F907301201D2B20B4461
:103E300083F800230AE03B68DAB20849FB7903F013
:103E40000F03043B1201D2B20B441A7600BF0C37A9
:103E5000BD465DF8047B704700E100E000ED00E046
:103E600080B489B000AFF860B9607A60FB6803F095
:103E70000703FB61FB69C3F10703042B28BF04237D
:103E8000BB61FB690433062B02D9FB69033B00E0ED
:103E900000237B614FF0FF32BB6902FA03F3DA4380
:103EA000BB681A407B699A404FF0FF317B6901FA89
:103EB00003F3D9437B680B40134318462437BD46B0
:103EC0005DF8047B7047000080B582B000AF786079
:103ED0007B68013BB3F1807F01D301230FE00A4AE5
:103EE0007B68013B53600F214FF0FF30FFF78EFFDF
:103EF000054B00229A60044B07221A6000231846E3
:103F00000837BD4680BD00BF10E000E080B582B03C
:103F100000AF78607868FFF729FF00BF0837BD461B
:103F200080BD80B586B000AF0346B9607A60FB7390
:103F300000237B61FFF73EFF78617A68B968786992
:103F4000FFF78EFF024697F90F3011461846FFF72C
:103F50005DFF00BF1837BD4680BD80B582B000AFA1
:103F60000346FB7197F907301846FFF731FF00BF92
:103F70000837BD4680BD80B582B000AF78607868F4
:103F8000FFF7A2FF034618460837BD4680BD80B53F
:103F900000AF00F002F800BF80BD80B400AF00BFEA
:103FA000BD465DF8047B704780B485B000AF786093
:103FB0007B68002B01D1012398E07B681B681A46BF
:103FC0004D4B9A420FD87B681B681A464B4B1344E3
:103FD0004B4AA2FB03231B099A007B685A647B6847
:103FE000484A1A640EE07B681B681A46464B134425
:103FF000434AA2FB03231B099A007B685A647B682F
:10400000424A1A647B68022283F825207B681B6879
:104010001B68FB60FB6823F4FF4323F07003FB6025
:104020007B689A687B68DB681A437B681B691A4364
:104030007B685B691A437B689B691A437B68DB6911
:104040001A437B681B6A1343FA681343FB607B685F
:104050001B68FA681A607B689B68B3F5804F39D09B
:104060007B681B6C274A93421AD1294B1A687B68DC
:104070005B6C03F01C030F2101FA03F3DB432449BB
:1040800013400B60224B1A687B6859687B685B6C35
:1040900003F01C0301FA03F31D4913430B6019E0FD
:1040A0001C4B1A687B685B6C03F01C030F2101FA40
:1040B00003F3DB43174913400B60164B1A687B6808
:1040C00059687B685B6C03F01C0301FA03F3114928
:1040D00013430B607B680022DA637B68012283F85C
:1040E00025207B68002283F82420002318461437FB
:1040F000BD465DF8047B704707040240F8FFFDBF32
:10410000CDCCCCCC00000240F8FBFDBF0004024047
:10411000A8000240A804024080B586B000AFF86055
:10412000B9607A603B600023FB75FB6893F824302C
:10413000012B01D102234BE0FB68012283F82420EC
:10414000FB6893F82530DBB2012B3AD1FB680222E1
:1041500083F82520FB680022DA63FB681B681A6875
:10416000FB681B6822F001021A603B687A68B96834
:10417000F86800F06BF9FB681B6B002B08D0FB683C
:104180001B681A68FB681B6842F00E021A600FE099
:10419000FB681B681A68FB681B6822F004021A603F
:1041A000FB681B681A68FB681B6842F00A021A6009
:1041B000FB681B681A68FB681B6842F001021A6002
:1041C00005E0FB68002283F824200223FB75FB7DB9
:1041D00018461837BD4680BD80B485B000AF786002
:1041E0000023FB737B6893F82530DBB2022B08D0E9
:1041F0007B680422DA637B68002283F82420012391
:1042000022E07B681B681A687B681B6822F00E023C
:104210001A607B681B681A687B681B6822F00102C1
:104220001A607B685B6C03F01C027B681B6C0121CD
:1042300001FA02F25A607B68012283F825207B682C
:10424000002283F82420FB7B18461437BD465DF816
:10425000047B704780B584B000AF78600023FB73A7
:104260007B6893F82530DBB2022B05D07B680422F3
:10427000DA630123FB7329E07B681B681A687B689B
:104280001B6822F00E021A607B681B681A687B6844
:104290001B6822F001021A607B685B6C03F01C0251
:1042A0007B681B6C012101FA02F25A607B680122D3
:1042B00083F825207B68002283F824207B689B6B91
:1042C000002B03D07B689B6B78689847FB7B184674
:1042D0001037BD4680BD80B584B000AF78607B6884
:1042E0001B6C1B68FB607B681B681B68BB607B6882
:1042F0005B6C03F01C0304229A40FB681340002B04
:1043000026D0BB6803F00403002B21D07B681B6818
:104310001B6803F02003002B07D17B681B681A6819
:104320007B681B6822F004021A607B685B6C03F0F8
:104330001C027B681B6C042101FA02F25A607B6844
:104340001B6B002B71D07B681B6B786898476CE007
:104350007B685B6C03F01C0302229A40FB681340ED
:10436000002B2ED0BB6803F00203002B29D07B6802
:104370001B681B6803F02003002B0BD17B681B68B4
:104380001A687B681B6822F00A021A607B680122A7
:1043900083F825207B685B6C03F01C027B681B6C38
:1043A000022101FA02F25A607B68002283F824207D
:1043B0007B68DB6A002B38D07B68DB6A78689847BB
:1043C00033E07B685B6C03F01C0308229A40FB68B7
:1043D0001340002B2AD0BB6803F00803002B25D024
:1043E0007B681B681A687B681B6822F00E021A60E3
:1043F0007B685B6C03F01C027B681B6C012101FA7B
:1044000002F25A607B680122DA637B68012283F83A
:1044100025207B68002283F824207B685B6B002BBF
:1044200004D07B685B6B7868984700BF00BF10378B
:10443000BD4680BD80B483B000AF78607B68DB6B25
:1044400018460C37BD465DF8047B704780B485B0D4
:1044500000AFF860B9607A603B60FB685B6C03F0AA
:104460001C02FB681B6C012101FA02F25A60FB6816
:104470001B683A685A60FB689B68102B08D1FB6880
:104480001B687A689A60FB681B68BA68DA6007E0A4
:10449000FB681B68BA689A60FB681B687A68DA6018
:1044A00000BF1437BD465DF8047B704780B487B009
:1044B00000AF7860396000237B6154E13B681A6883
:1044C00001217B6901FA03F31340FB60FB68002BB9
:1044D00000F046813B685B6803F00303012B05D0C5
:1044E0003B685B6803F00303022B30D17B689B6859
:1044F0003B617B695B00032202FA03F3DB433A6909
:1045000013403B613B68DA687B695B0002FA03F3A6
:104510003A6913433B617B683A699A607B685B68E0
:104520003B6101227B6902FA03F3DB433A691340E2
:104530003B613B685B681B0903F001027B6902FA7F
:1045400003F33A6913433B617B683A695A603B68FD
:104550005B6803F00303032B17D07B68DB683B61C8
:104560007B695B00032202FA03F3DB433A691340E1
:104570003B613B689A687B695B0002FA03F33A6926
:1045800013433B617B683A69DA603B685B6803F020
:104590000303022B23D17B69DA087B68083253F8C6
:1045A00022303B617B6903F007039B000F2202FA74
:1045B00003F3DB433A6913403B613B681A697B694B
:1045C00003F007039B0002FA03F33A6913433B61CC
:1045D0007B69DA087B680832396943F822107B6806
:1045E0001B683B617B695B00032202FA03F3DB4338
:1045F0003A6913403B613B685B6803F003027B69E7
:104600005B0002FA03F33A6913433B617B683A6942
:104610001A603B685B6803F44033002B00F0A08015
:10462000584B1B6E574A43F001031366554B1B6EE4
:1046300003F00103BB60BB68534A7B699B080233EC
:1046400052F823303B617B6903F003039B000F2288
:1046500002FA03F3DB433A6913403B617B68B3F131
:10466000904F19D07B68494A934213D07B68484ADF
:1046700093420DD07B68474A934207D07B68464AF5
:10468000934201D1042308E0072306E0032304E05A
:10469000022302E0012300E000237A6902F0030212
:1046A000920093403A6913433B6137497B699B0809
:1046B00002333A6941F82320384B9B683B61FB6821
:1046C000DB433A6913403B613B685B6803F480134A
:1046D000002B03D03A69FB6813433B612F4A3B69C7
:1046E00093602E4BDB683B61FB68DB433A69134008
:1046F0003B613B685B6803F40013002B03D03A690D
:10470000FB6813433B61254A3B69D360234B5B68DD
:104710003B61FB68DB433A6913403B613B685B6884
:1047200003F40033002B03D03A69FB6813433B6169
:104730001A4A3B695360194B1B683B61FB68DB43BA
:104740003A6913403B613B685B6803F48033002B9C
:1047500003D03A69FB6813433B61104A3B6913601D
:104760007B6901337B613B681A687B6922FA03F33A
:10477000002B7FF4A3AE00BF00BF1C37BD465DF821
:10478000047B704700100240000001400004004814
:1047900000080048000C00480010004800040140D8
:1047A00080B485B000AF78600B467B807B681A6967
:1047B0007B881340002B02D00123FB7301E0002310
:1047C000FB73FB7B18461437BD465DF8047B7047CE
:1047D00080B483B000AF78600B467B8013467B705B
:1047E0007B78002B03D07A887B689A6102E07A8814
:1047F0007B689A6200BF0C37BD465DF8047B70474A
:1048000080B485B000AF78600B467B807B685B69C5
:10481000FB607A88FB6813401A04FB68D9437B88E5
:104820000B401A437B689A6100BF1437BD465DF8A0
:10483000047B704780B400AF044B1B6803F4C06373
:104840001846BD465DF8047B704700BF007000400D
:1048500080B485B000AF78607B68B3F5007F30D15D
:10486000234B1B6803F4C063B3F5007F38D0204BA3
:104870001B6823F4C0631E4A43F4007313601D4B8E
:104880001B68322202FB03F31B4AA2FB03239B0C8F
:104890000133FB6002E0FB68013BFB60144B5B698A
:1048A00003F48063B3F5806F02D1FB68002BF2D173
:1048B0000F4B5B6903F48063B3F5806F10D1032362
:1048C0000FE00B4B1B6803F4C063B3F5806F07D098
:1048D000074B1B6823F4C063054A43F480631360ED
:1048E000002318461437BD465DF8047B704700BFAF
:1048F000007000400C00002083DE1B4380B588B0B0
:1049000000AF78607B68002B02D1012300F002BC6D
:10491000964B9B6803F00C03BB61944BDB6803F080
:1049200003037B617B681B6803F01003002B00F01E
:10493000E480BB69002B07D0BB690C2B40F08B8057
:104940007B69012B40F08780884B1B6803F00203D2
:10495000002B05D07B689B69002B01D10123D9E393
:104960007B681A6A814B1B6803F00803002B04D094
:104970007E4B1B6803F0F00305E07C4BD3F89430CA
:104980001B0903F0F003934223D27B681B6A18468D
:1049900000F08CFD0346002B01D00123BAE3734BDA
:1049A0001B68724A43F008031360704B1B6823F0C6
:1049B000F0027B681B6A6D4913430B606B4B5B68AD
:1049C00023F47F427B68DB691B02684913434B6019
:1049D00025E0664B1B68654A43F008031360634B90
:1049E0001B6823F0F0027B681B6A604913430B606D
:1049F0005E4B5B6823F47F427B68DB691B025B498B
:104A000013434B60BB69002B09D17B681B6A1846B6
:104A100000F04CFD0346002B01D001237AE300F0A7
:104A200081FC0246514B9B681B0903F00F03504960
:104A3000CB5C03F01F0322FA03F34E4A13604E4B84
:104A40001B681846FFF712F90346FB73FB7B002B2C
:104A500052D0FB7B5EE37B689B69002B32D0434BDB
:104A60001B68424A43F001031360FFF74FF93861B6
:104A700008E0FFF74BF902463B69D31A022B01D934
:104A8000032347E3394B1B6803F00203002BF0D0EC
:104A9000364B1B68354A43F008031360334B1B68E1
:104AA00023F0F0027B681B6A304913430B602F4BE5
:104AB0005B6823F47F427B68DB691B022B4913434D
:104AC0004B601AE0294B1B68284A23F0010313604E
:104AD000FFF71CF9386108E0FFF718F902463B6957
:104AE000D31A022B01D9032314E3204B1B6803F0D4
:104AF0000203002BF0D100E000BF7B681B6803F0CD
:104B00000103002B73D0BB69082B05D0BB690C2BAC
:104B10000ED17B69032B0BD1144B1B6803F40033BC
:104B2000002B63D07B685B68002B5FD10123F1E22F
:104B30007B685B68B3F5803F06D10C4B1B680B4A62
:104B400043F48033136025E07B685B68B3F5A02FE6
:104B500014D1064B1B68054A43F480231360034BB2
:104B60001B68024A43F48033136013E000100240D4
:104B7000D42001080C00002038000020A04B1B6846
:104B80009F4A23F4803313609D4B1B689C4A23F497
:104B9000802313607B685B68002B13D0FFF7B6F8A7
:104BA000386108E0FFF7B2F802463B69D31A642B7C
:104BB00001D90323AEE2924B1B6803F40033002BB0
:104BC000F0D014E0FFF7A2F8386108E0FFF79EF894
:104BD00002463B69D31A642B01D903239AE2884B1E
:104BE0001B6803F40033002BF0D100E000BF7B68AA
:104BF0001B6803F00203002B60D0BB69042B05D0B7
:104C0000BB690C2B19D17B69022B16D17C4B1B681D
:104C100003F48063002B05D07B68DB68002B01D197
:104C2000012377E2764B5B6823F0F8527B681B69BF
:104C30001B06734913434B6040E07B68DB68002B25
:104C400023D06F4B1B686E4A43F480731360FFF7E9
:104C50005DF8386108E0FFF759F802463B69D31A5E
:104C6000022B01D9032355E2654B1B6803F48063D3
:104C7000002BF0D0624B5B6823F0F8527B681B6915
:104C80001B065F4913434B6018E05D4B1B685C4A91
:104C900023F480731360FFF739F8386108E0FFF7F9
:104CA00035F802463B69D31A022B01D9032331E2BE
:104CB000534B1B6803F48063002BF0D17B681B68A7
:104CC00003F00803002B3CD07B685B69002B1CD0F1
:104CD0004B4BD3F894304A4A43F00103C2F8943066
:104CE000FFF714F8386108E0FFF710F802463B6957
:104CF000D31A022B01D903230CE2414BD3F8943091
:104D000003F00203002BEFD01BE03D4BD3F89430AF
:104D10003B4A23F00103C2F89430FEF7F7FF3861F5
:104D200008E0FEF7F3FF02463B69D31A022B01D9D4
:104D30000323EFE1324BD3F8943003F00203002B4E
:104D4000EFD17B681B6803F00403002B00F0A68002
:104D50000023FB772A4B9B6D03F08053002B0DD172
:104D6000274B9B6D264A43F080539365244B9B6DE4
:104D700003F08053BB60BB680123FB77214B1B68AA
:104D800003F48073002B18D11E4B1B681D4A43F49B
:104D900080731360FEF7BAFF386108E0FEF7B6FFD4
:104DA00002463B69D31A022B01D90323B2E1154B0A
:104DB0001B6803F48073002BF0D07B689B68012B89
:104DC00008D10F4BD3F890300D4A43F00103C2F8DD
:104DD000903029E07B689B68052B15D1084BD3F8F0
:104DE0009030074A43F00403C2F89030044BD3F8E4
:104DF0009030034A43F00103C2F8903014E000BF42
:104E000000100240007000409A4BD3F89030994A4D
:104E100023F00103C2F89030964BD3F89030954AB6
:104E200023F00403C2F890307B689B68002B16D0F7
:104E3000FEF76CFF38610AE0FEF768FF02463B6947
:104E4000D31A41F28832934201D9032362E1894B9C
:104E5000D3F8903003F00203002BEDD015E0FEF7FD
:104E600055FF38610AE0FEF751FF02463B69D31A4D
:104E700041F28832934201D903234BE17D4BD3F8B1
:104E8000903003F00203002BEDD1FB7F012B05D105
:104E9000784B9B6D774A23F0805393657B681B6842
:104EA00003F02003002B3CD07B685B6A002B1CD0F6
:104EB000704BD3F898306F4A43F00103C2F8983032
:104EC000FEF724FF386108E0FEF720FF02463B6949
:104ED000D31A022B01D903231CE1664BD3F8983077
:104EE00003F00203002BEFD01BE0624BD3F89830A5
:104EF000604A23F00103C2F89830FEF707FF3861DB
:104F000008E0FEF703FF02463B69D31A022B01D9E2
:104F10000323FFE0574BD3F8983003F00203002B34
:104F2000EFD17B689B6A002B00F0F3807B689B6A63
:104F3000022B40F0C9804F4BDB687B617B6903F03B
:104F400003027B68DB6A9A422CD17B6903F0700212
:104F50007B681B6B013B1B019A4223D17B6903F4E5
:104F6000FE427B685B6B1B029A421BD17B6903F09C
:104F700078427B689B6BDB069A4213D17B6903F412
:104F8000C0027B68DB6B5B08013B5B059A4209D181
:104F90007B6903F0C0627B681B6C5B08013B5B06AE
:104FA0009A426BD0BB690C2B62D0324B1B6803F06A
:104FB0008063002B01D00123ACE02E4B1B682D4AEF
:104FC00023F080731360FEF7A1FE386108E0FEF75E
:104FD0009DFE02463B69D31A022B01D9032399E0B7
:104FE000244B1B6803F00073002BF0D1214BDA68CF
:104FF000214B13407A68D16A7A68126B013A120128
:1050000011437A68526B120211437A68D26B5208CC
:10501000013A520511437A68126C5208013A52065D
:1050200011437A68926BD2060A4312491343CB604C
:10503000104B1B680F4A43F0807313600D4BDB6805
:105040000C4A43F08073D360FEF760FE386108E0DD
:10505000FEF75CFE02463B69D31A022B01D90323FB
:1050600058E0044B1B6803F00073002BF0D050E0B5
:1050700001234FE0001002408C809D01274B1B68EC
:1050800003F00073002B44D1244B1B68234A43F0E8
:1050900080731360214BDB68204A43F08073D36038
:1050A000FEF734FE386108E0FEF730FE02463B6949
:1050B000D31A022B01D903232CE0184B1B6803F0F1
:1050C0000073002BF0D024E0BB690C2B1FD0134BD6
:1050D0001B68124A23F080731360FEF717FE3861D5
:1050E00008E0FEF713FE02463B69D31A022B01D9F2
:1050F00003230FE0094B1B6803F00073002BF0D172
:10510000064BDA680549064B1340CB6001E00123EA
:1051100000E0002318462037BD4680BD0010024045
:10512000FCFFEEFE80B584B000AF786039607B682C
:10513000002B01D10123E7E0754B1B6803F0070347
:105140003A689A4210D9724B1B6823F007027049E3
:105150003B6813430B606E4B1B6803F007033A6810
:105160009A4201D00123CFE07B681B6803F0020361
:10517000002B10D07B689A68664B9B6803F0F003A5
:105180009A4208D9634B9B6823F0F0027B689B68C6
:10519000604913438B607B681B6803F00103002B9D
:1051A0004CD07B685B68032B07D15A4B1B6803F01C
:1051B0000073002B21D10123A6E07B685B68022BE2
:1051C00007D1544B1B6803F40033002B15D1012386
:1051D0009AE07B685B68002B07D14E4B1B6803F09D
:1051E0000203002B09D101238EE04A4B1B6803F414
:1051F0008063002B01D1012386E0464B9B6823F09E
:1052000003027B685B68434913438B60FEF77EFDB6
:10521000F8600AE0FEF77AFD0246FB68D31A41F215
:105220008832934201D903236EE03A4B9B6803F026
:105230000C027B685B689B009A42EBD17B681B6821
:1052400003F00203002B10D07B689A68314B9B68F7
:1052500003F0F0039A4208D22E4B9B6823F0F00231
:105260007B689B682B4913438B60294B1B6803F0B9
:1052700007033A689A4210D2254B1B6823F00702B5
:1052800023493B6813430B60214B1B6803F0070362
:105290003A689A4201D0012336E07B681B6803F02C
:1052A0000403002B08D01B4B9B6823F4E0627B684F
:1052B000DB68184913438B607B681B6803F00803A5
:1052C000002B09D0134B9B6823F460527B681B6949
:1052D000DB00104913438B6000F024F802460D4BAD
:1052E0009B681B0903F00F030B49CB5C03F01F0302
:1052F00022FA03F3094A1360094B1B681846FEF7AC
:10530000B5FC0346FB72FB7A18461037BD4680BDDC
:105310000020024000100240D42001080C000020B0
:105320003800002080B489B000AF0023FB61002367
:10533000BB613E4B9B6803F00C033B613B4BDB685E
:1053400003F00303FB603B69002B05D03B690C2B8A
:1053500021D1FB68012B1ED1344B1B6803F00803DD
:10536000002B07D1314BD3F894301B0A03F00F0305
:10537000FB6105E02D4B1B681B0903F00F03FB616C
:105380002B4AFB6952F82330FB613B69002B0DD19E
:10539000FB69BB610AE03B69042B02D1254BBB6171
:1053A00004E03B69082B01D1234BBB613B690C2B0B
:1053B00034D11E4BDB6803F00303BB60BB68022BD8
:1053C00003D0BB68032B03D005E01A4B7B6105E0DB
:1053D000194B7B6102E0FB697B6100BF134BDB680B
:1053E0001B0903F0070301337B60104BDB681B0ACA
:1053F00003F07F037A6903FB02F27B68B2FBF3F3ED
:105400007B610A4BDB685B0E03F0030301335B0037
:105410003B607A693B68B2FBF3F3BB61BB6918463A
:105420002437BD465DF8047B704700BF0010024082
:10543000EC2001080024F40000127A0080B400AFD0
:10544000034B1B681846BD465DF8047B704700BFE0
:105450000C00002080B500AFFFF7F0FF0246064BBE
:105460009B681B0A03F007030449CB5C03F01F038E
:1054700022FA03F3184680BD00100240E420010820
:1054800080B500AFFFF7DAFF0246064B9B68DB0AE8
:1054900003F007030449CB5C03F01F0322FA03F374
:1054A000184680BD00100240E420010880B586B097
:1054B00000AF786000233B612A4B9B6D03F0805363
:1054C000002B03D0FFF7B6F9786114E0254B9B6DF4
:1054D000244A43F080539365224B9B6D03F0805325
:1054E000FB60FB68FFF7A6F978611E4B9B6D1D4AB8
:1054F00023F0805393657B69B3F5007F0BD17B6804
:10550000802B19D97B68A02B02D902233B6113E0C1
:1055100001233B6110E07B68802B02D903233B61B0
:105520000AE07B68802B02D102233B6104E07B68A8
:10553000702B01D101233B610B4B1B6823F0070249
:1055400009493B6913430B60074B1B6803F00703D2
:105550003A699A4201D0012300E000231846183727
:10556000BD4680BD001002400020024080B586B0DC
:1055700000AF78600023FB740023BB747B681B685A
:1055800003F40063002B31D07B685B6CB3F5400FF4
:105590001AD0B3F5400F14D8002B09D0B3F5000F83
:1055A0000FD15D4BDB685C4A43F48033D3600CE081
:1055B0007B6804330021184600F022FA0346FB748E
:1055C00003E00123FB7400E000BFFB7C002B0BD148
:1055D000514BD3F8883023F440027B685B6C4E4912
:1055E0001343C1F8883001E0FB7CBB747B681B6807
:1055F00003F40033002B00F09E8000237B74464BA5
:105600009B6D03F08053002B01D1012300E00023A8
:10561000002B0DD0404B9B6D3F4A43F08053936568
:105620003D4B9B6D03F08053BB60BB6801237B74D3
:105630003A4B1B68394A43F480731360FEF766FBEC
:10564000F86009E0FEF762FB0246FB68D31A022B02
:1056500002D90323FB7405E0304B1B6803F480730D
:10566000002BEFD0FB7C002B5AD12B4BD3F8903082
:1056700003F440737B617B69002B1ED07B68DB6D7C
:105680007A699A4219D0244BD3F8903023F44073AE
:105690007B61214BD3F890301F4A43F48033C2F82A
:1056A00090301D4BD3F890301B4A23F48033C2F85E
:1056B0009030194A7B69C2F890307B6903F001038E
:1056C000002B16D0FEF722FBF8600BE0FEF71EFB66
:1056D0000246FB68D31A41F28832934202D903236F
:1056E000FB7406E00C4BD3F8903003F00203002B60
:1056F000ECD0FB7C002B0BD1074BD3F8903023F47C
:1057000040727B68DB6D04491343C1F8903009E0B7
:10571000FB7CBB7406E000BF00100240007000403C
:10572000FB7CBB747B7C012B05D18D4B9B6D8C4A24
:1057300023F0805393657B681B6803F00103002B03
:105740000AD0874BD3F8883023F003027B681B6AAA
:1057500083491343C1F888307B681B6803F0020358
:10576000002B0AD07E4BD3F8883023F00C027B68E4
:105770005B6A7B491343C1F888307B681B6803F080
:105780000403002B0AD0764BD3F8883023F0300284
:105790007B689B6A72491343C1F888307B681B6839
:1057A00003F02003002B0AD06D4BD3F8883023F48C
:1057B00040627B68DB6A6A491343C1F888307B68C2
:1057C0001B6803F40073002B0AD0654BD3F88830B4
:1057D00023F440227B68DB6B61491343C1F88830B6
:1057E0007B681B6803F48063002B0AD05C4BD3F802
:1057F000883023F440127B681B6C59491343C1F86D
:1058000088307B681B6803F04003002B0AD0544BA0
:10581000D3F8883023F440527B681B6B5049134304
:10582000C1F888307B681B6803F08003002B0AD026
:105830004B4BD3F8883023F440427B685B6B48497C
:105840001343C1F888307B681B6803F48073002B16
:105850000AD0434BD3F8883023F440327B689B6BEB
:105860003F491343C1F888307B681B6803F4005339
:10587000002B28D03A4BD3F8883023F040627B6865
:105880009B6C37491343C1F888307B689B6CB3F13C
:10589000006F06D1324BDB68314A43F48013D3608A
:1058A00011E07B689B6CB3F1806F0CD17B68043393
:1058B0000121184600F0A4F80346FB74FB7C002B82
:1058C00001D0FB7CBB747B681B6803F40023002BB6
:1058D00028D0234BD3F8883023F040627B68DB6C00
:1058E0001F491343C1F888307B68DB6CB3F1006F4C
:1058F00006D11B4BDB681A4A43F48013D36011E0D6
:105900007B68DB6CB3F1806F0CD17B6804330121C1
:10591000184600F075F80346FB74FB7C002B01D0A1
:10592000FB7CBB747B681B6803F48023002B2BD0AB
:105930000B4BD3F8883023F040627B681B6D08491D
:105940001343C1F888307B681B6DB3F1006F09D138
:10595000034BDB68024A43F48013D36014E000BFBA
:10596000001002407B681B6DB3F1806F0CD17B6827
:1059700004330121184600F043F80346FB74FB7C16
:10598000002B01D0FB7CBB747B681B6803F4804355
:10599000002B1CD0194BD3F8883023F040527B6881
:1059A0005B6D16491343C1F888307B685B6DB3F1BA
:1059B000805F0CD17B6804330221184600F020F888
:1059C0000346FB74FB7C002B01D0FB7CBB747B6823
:1059D0001B6803F40043002B0AD0084BD3F888302F
:1059E00023F080427B689B6D04491343C1F88830E3
:1059F000BB7C18461837BD4680BD00BF0010024072
:105A000080B584B000AF786039600023FB73744BBD
:105A1000DB6803F00303002B18D0714BDB6803F045
:105A200003027B681B689A420DD17B681B68002BC0
:105A300009D06B4BDB681B0903F007035A1C7B681A
:105A40005B689A4247D00123FB7344E07B681B6884
:105A5000032B18D0032B25D8012B02D0022B09D001
:105A600020E05F4B1B6803F00203002B1DD10123D4
:105A7000FB731AE05A4B1B6803F48063002B16D1AA
:105A80000123FB7313E0564B1B6803F40033002B18
:105A90000FD1534B1B6803F48023002B09D1012342
:105AA000FB7306E00123FB7304E000BF02E000BFCC
:105AB00000E000BFFB7B002B0DD1494BDB6823F0DE
:105AC00073027B6819687B685B68013B1B010B43B1
:105AD00043491343CB60FB7B002B7CD1404B1B68BD
