:020000040800F2
:1000000000C00020E93C0008FD2700080528000882
:100010000D280008152800081D2800080000000011
:10002000000000000000000000000000252800087B
:100030003328000800000000412800084F2800086D
:10004000393D0008393D0008393D0008393D0008B8
:10005000393D0008393D0008393D0008393D0008A8
:10006000393D0008393D00085F280008393D000887
:100070006D2800088128000895280008A928000894
:10008000393D0008393D0008393D0008393D000878
:10009000393D0008393D0008393D0008393D000868
:1000A000393D0008393D0008393D0008393D000858
:1000B000BD2800080000000000000000393D0008D5
:1000C000393D0008393D0008393D0008D1280008B5
:1000D000E5280008F9280008393D0008393D0008E6
:1000E000393D0008393D0008000000000000000014
:1000F0000000000000000000000000000000000000
:1001000000000000393D000800000000393D0008F3
:100110000000000000000000292A00083D2A000815
:10012000393D0008393D0008393D0008393D0008D7
:10013000393D000800000000000000000000000041
:10014000393D0008393D0008393D0008393D0008B7
:10015000512A0008652A0008393D0008393D000889
:10016000393D0008393D0008393D00080000000015
:10017000393D0008393D0008393D00080000000005
:0C018000393D0008393D0008393D0008F9
:1001900010B5054C237833B9044B13B10448AFF3C1
:1001A00000800123237010BD8802002000000000A1
:1001B0001841010808B5034B1BB103490348AFF3CD
:1001C000008008BD000000008C02002018410108DA
:1001D00010F8012B11F8013B012A28BF9A42F7D0F1
:1001E000D01A70470000000000000000000000006E
:1001F00001F0FF01102A2BDB10F0070F08D010F8D8
:10020000013B013A8B422DD010F0070F42B3F6D1DB
:10021000F0B441EA012141EA014122F007047FF0F4
:1002200000070023F0E80256083C85EA010586EA4B
:10023000010685FA47F5A3FA87F586FA47F6A5FA87
:1002400087F68EB9EED1F0BC01F0FF0102F0070293
:1002500032B110F8013B013A83EA010313B1F8D13E
:100260000020704701387047002D06BF354603381F
:10027000073815F0010F07D1013015F4807F02BF58
:10028000013015F4C03F0130F0BC0138704700BFA9
:10029000034613F8012B002AFBD1181A01387047C6
:1002A00081F0004102E000BF83F0004330B54FEA27
:1002B00041044FEA430594EA050F08BF90EA020F94
:1002C0001FBF54EA000C55EA020C7FEA645C7FEA27
:1002D000655C00F0E2804FEA5454D4EB5555B8BF4A
:1002E0006D420CDD2C4480EA020281EA030382EABB
:1002F000000083EA010180EA020281EA0303362D4D
:1003000088BF30BD11F0004F4FEA01314FF4801C1F
:100310004CEA113102D0404261EB410113F0004F31
:100320004FEA03334CEA133302D0524263EB4303E8
:1003300094EA050F00F0A780A4F10104D5F1200E86
:100340000DDB02FA0EFC22FA05F2801841F10001E1
:1003500003FA0EF2801843FA05F359410EE0A5F1B5
:1003600020050EF1200E012A03FA0EFC28BF4CF0E6
:10037000020C43FA05F3C01851EBE37101F000459C
:1003800007D54FF0000EDCF1000C7EEB00006EEBA9
:100390000101B1F5801F1BD3B1F5001F0CD3490833
:1003A0005FEA30004FEA3C0C04F101044FEA44528A
:1003B00012F5800F80F09A80BCF1004F08BF5FEA11
:1003C000500C50F1000041EB045141EA050130BDF1
:1003D0005FEA4C0C404141EB0101013C28BFB1F503
:1003E000801FE9D291F0000F04BF01460020B1FA4E
:1003F00081F308BF2033A3F10B03B3F120020CDA21
:100400000C3208DD02F1140CC2F10C0201FA0CF0FE
:1004100021FA02F10CE002F11402D8BFC2F1200C63
:1004200001FA02F120FA0CFCDCBF41EA0C01904019
:10043000E41AA2BF01EB0451294330BD6FEA040462
:100440001F3C1CDA0C340EDC04F11404C4F120024D
:1004500020FA04F001FA02F340EA030021FA04F35F
:1004600045EA030130BDC4F10C04C4F1200220FAB6
:1004700002F001FA04F340EA0300294630BD21FAF4
:1004800004F0294630BD94F0000F83F4801306BFBA
:1004900081F480110134013D4EE77FEA645C18BFAE
:1004A0007FEA655C29D094EA050F08BF90EA020F45
:1004B00005D054EA000C04BF1946104630BD91EA3D
:1004C000030F1EBF0021002030BD5FEA545C05D140
:1004D0004000494128BF41F0004130BD14F580047F
:1004E0003CBF01F5801130BD01F0004545F0FE41F3
:1004F00041F470014FF0000030BD7FEA645C1ABF28
:10050000194610467FEA655C1CBF0B46024650EA5E
:10051000013406BF52EA033591EA030F41F400218A
:1005200030BD00BF90F0000F04BF0021704730B510
:100530004FF4806404F132044FF000054FF00001E5
:1005400050E700BF90F0000F04BF0021704730B5A6
:100550004FF4806404F1320410F0004548BF40427B
:100560004FF000013EE700BF42004FEAE2014FEAD0
:1005700031014FEA02701FBF12F07F4393F07F4FAB
:1005800081F06051704732F07F4208BF704793F0AE
:100590007F4F04BF41F40021704730B54FF46074C1
:1005A00001F0004521F000411CE700BF50EA0102C4
:1005B00008BF704730B54FF000050AE050EA01026D
:1005C00008BF704730B511F0004502D5404261EBDD
:1005D00041014FF4806404F132045FEA915C3FF41E
:1005E000D8AE4FF003025FEADC0C18BF03325FEABB
:1005F000DC0C18BF033202EBDC02C2F1200300FA6C
:1006000003FC20FA02F001FA03FE40EA0E0021FA90
:1006100002F11444BDE600BF70B54FF0FF0C4CF47E
:10062000E06C1CEA11541DBF1CEA135594EA0C0F30
:1006300095EA0C0F00F0DEF82C4481EA030621EA6B
:100640004C5123EA4C5350EA013518BF52EA0335A6
:1006500041F4801143F4801338D0A0FB02CE4FF058
:100660000005E1FB02E506F00042E0FB03E54FF088
:100670000006E1FB03569CF0000F18BF4EF0010E80
:10068000A4F1FF04B6F5007F64F5407404D25FEA7C
:100690004E0E6D4146EB060642EAC62141EA55512F
:1006A0004FEAC52040EA5E504FEACE2EB4F1FD0C71
:1006B00088BFBCF5E06F1ED8BEF1004F08BF5FEAEF
:1006C000500E50F1000041EB045170BD06F00046A1
:1006D00046EA010140EA020081EA0301B4EB5C044E
:1006E000C2BFD4EB0C0541EA045170BD41F4801146
:1006F0004FF0000E013C00F3AB8014F1360FDEBF6B
:10070000002001F0004170BDC4F10004203C35DA46
:100710000C341BDC04F11404C4F1200500FA05F3C9
:1007200020FA04F001FA05F240EA020001F000426A
:1007300021F0004110EBD37021FA04F642EB0601E0
:100740005EEA430E08BF20EAD37070BDC4F10C040A
:10075000C4F1200500FA04F320FA05F001FA04F2CE
:1007600040EA020001F0004110EBD37041F10001BA
:100770005EEA430E08BF20EAD37070BDC4F12005C5
:1007800000FA05F24EEA020E20FA04F301FA05F22D
:1007900043EA020321FA04F001F0004121FA04F2D5
:1007A00020EA020000EBD3705EEA430E08BF20EAA5
:1007B000D37070BD94F0000F0FD101F000464000DF
:1007C00041EB010111F4801F08BF013CF7D041EA61
:1007D000060195F0000F18BF704703F00046520065
:1007E00043EB030313F4801F08BF013DF7D043EA36
:1007F0000603704794EA0C0F0CEA135518BF95EAEC
:100800000C0F0CD050EA410618BF52EA4306D1D172
:1008100081EA030101F000414FF0000070BD50EA91
:10082000410606BF1046194652EA430619D094EA1B
:100830000C0F02D150EA013613D195EA0C0F05D105
:1008400052EA03361CBF104619460AD181EA030159
:1008500001F0004141F0FE4141F470014FF0000011
:1008600070BD41F0FE4141F4780170BD70B54FF0AC
:10087000FF0C4CF4E06C1CEA11541DBF1CEA13552C
:1008800094EA0C0F95EA0C0F00F0A7F8A4EB05040E
:1008900081EA030E52EA03354FEA013100F0888005
:1008A0004FEA03334FF0805545EA131343EA1263CE
:1008B0004FEA022245EA111545EA10654FEA002683
:1008C0000EF000419D4208BF964244F1FD0404F53C
:1008D000407402D25B084FEA3202B61A65EB030598
:1008E0005B084FEA32024FF480104FF4002CB6EB55
:1008F000020E75EB030E22BFB61A754640EA0C00D5
:100900005B084FEA3202B6EB020E75EB030E22BF14
:10091000B61A754640EA5C005B084FEA3202B6EB55
:10092000020E75EB030E22BFB61A754640EA9C0014
:100930005B084FEA3202B6EB020E75EB030E22BFE4
:10094000B61A754640EADC0055EA060E18D04FEAA2
:10095000051545EA16754FEA06164FEAC30343EA42
:1009600052734FEAC2025FEA1C1CC0D111F4801F0F
:100970000BD141EA00014FF000004FF0004CB6E708
:1009800011F4801F04BF01430020B4F1FD0C88BFA7
:10099000BCF5E06F3FF6AFAEB5EB030C04BFB6EBB2
:1009A000020C5FEA500C50F1000041EB045170BDA5
:1009B0000EF0004E4EEA113114EB5C04C2BFD4EBD2
:1009C0000C0541EA045170BD41F480114FF0000E56
:1009D000013C90E645EA060E8DE60CEA135594EAD2
:1009E0000C0F08BF95EA0C0F3FF43BAF94EA0C0FD5
:1009F0000AD150EA01347FF434AF95EA0C0F7FF44A
:100A000025AF104619462CE795EA0C0F06D152EA9D
:100A100003353FF4FDAE1046194622E750EA410681
:100A200018BF52EA43067FF4C5AE50EA41047FF492
:100A30000DAF52EA43057FF4EBAE12E74FF0FF3CF7
:100A400006E000BF4FF0010C02E000BF4FF0010CC8
:100A50004DF804CD4FEA410C7FEA6C5C4FEA430C41
:100A600018BF7FEA6C5C1BD001B050EA410C0CBF90
:100A700052EA430C91EA030F02BF90EA020F0020F2
:100A8000704710F1000F91EA030F58BF994208BF59
:100A900090422CBFD8176FEAE37040F00100704716
:100AA0004FEA410C7FEA6C5C02D150EA013C07D16D
:100AB0004FEA430C7FEA6C5CD6D152EA033CD3D0B8
:100AC0005DF8040B704700BF8446104662468C46B2
:100AD0001946634600E000BF01B5FFF7B7FF0028E5
:100AE00048BF10F1000F01BD4DF808EDFFF7F4FF0E
:100AF0000CBF012000205DF808FB00BF4DF808ED99
:100B0000FFF7EAFF34BF012000205DF808FB00BFBB
:100B10004DF808EDFFF7E0FF94BF012000205DF8DD
:100B200008FB00BF4DF808EDFFF7CEFF94BF012092
:100B300000205DF808FB00BF4DF808EDFFF7C4FF8B
:100B400034BF012000205DF808FB00BF4FEA410CD4
:100B50007FEA6C5C02D150EA013C0AD14FEA430CB7
:100B60007FEA6C5C02D152EA033C02D14FF00000F4
:100B700070474FF0010070474FEA410212F5001232
:100B800015D211D56FF47873B3EB625212D94FEAD4
:100B9000C12343F0004343EA505311F0004F23FABE
:100BA00002F018BF404270474FF00000704750EA13
:100BB000013005D111F0004008BF6FF000407047D0
:100BC0004FF00000704700BF4A0011D212F500122A
:100BD00011D20DD56FF47873B3EB62520ED44FEA95
:100BE000C12343F0004343EA505323FA02F0704715
:100BF0004FF00000704750EA013002D14FF0FF3053
:100C000070474FF0000070474FEA4102B2F1E043F5
:100C100024BFB3F5001CDCF1FE5C0DD901F0004CE3
:100C20004FEAC0024CEA5070B2F1004F40EB830033
:100C300008BF20F00100704711F0804F21D113F15F
:100C40003872BCBF01F00040704741F480114FEA98
:100C50005252C2F11802C2F1200C10FA0CF320FA21
:100C600002F018BF40F001004FEAC1234FEAD3233E
:100C700003FA0CFC40EA0C0023FA02F34FEA4303A8
:100C8000CCE77FEA625307D150EA01331EBF4FF031
:100C9000FE4040F44000704701F0004040F0FE404C
:100CA00040F40000704700BF53B94AB9002908BF9B
:100CB00000281CBF4FF0FF314FF0FF3000F0BEB9ED
:100CC000ADF1080C6DE904CE00F03CF8DDF804E06D
:100CD000DDE9022304B0704738B500220023044642
:100CE0000D46FFF70BFF28B920462946BDE83840DE
:100CF00000F00AB8204605F1004100F005F8404236
:100D000061EB410138BD00BFD0B50C4B0022064657
:100D10000F46FFF781FCFFF757FF0446FFF702FC81
:100D2000074B0022FFF778FC02460B463046394657
:100D3000FFF7BAFAFFF748FF2146D0BD0000F03DAB
:100D40000000F0412DE9F047089D8E460446884694
:100D5000002B4AD18A42174662D9B2FA82F64EB1C6
:100D6000C6F1200301FA06F820FA03F3B74043EA7C
:100D70000808B4404FEA174E1FFA87FCB8FBFEF193
:100D8000230C0EFB118843EA084301FB0CF29A4244
:100D900009D9FB1801F1FF3080F0EA809A4240F255
:100DA000E78002393B449A1AA3B2B2FBFEF00EFB75
:100DB000102243EA024300FB0CFC9C4509D9FB18B6
:100DC00000F1FF3280F0D6809C4540F2D3803B4456
:100DD000023840EA0140A3EB0C0300211DB1F340AF
:100DE0000022C5E90032BDE8F0878B4205D90DB17C
:100DF000C5E9000100210846F5E7B3FA83F10029AF
:100E000046D1734502D3824200F20581841A6EEB0B
:100E1000030201209046002DE5D0C5E90048E2E735
:100E2000002A00F09080B2FA82F6002E40F0A480F2
:100E30008A1A030C4FEA174E80B2BCB20121B2FBF2
:100E4000FEFC0EFB1C2243EA024304FB0CF29A4216
:100E500007D9FB180CF1FF3802D29A4200F2E08069
:100E6000C4469B1AB3FBFEF20EFB123340EA034367
:100E700002FB04F49C4207D9FB1802F1FF3002D2B6
:100E80009C4200F2CA8002461B1B42EA0C40A5E7C6
:100E9000C1F120068B4022FA06F71F430EFA01F437
:100EA00020FA06F32EFA06FE4FEA1749234300FA0A
:100EB00001F81FFA87FCBEFBF9F01C0C09FB10EED1
:100EC00044EA0E4400FB0CFEA64502FA01F209D9E1
:100ED0003C1900F1FF3A80F09C80A64540F29980D1
:100EE00002383C44A4EB0E041FFA83FEB4FBF9F372
:100EF00009FB13444EEA044403FB0CFCA44508D947
:100F00003C1903F1FF3E80F08280A4457FD9023B6B
:100F10003C4443EA0040A4EB0C04A0FB02EC644513
:100F20007346E14662D35FD05DB1B8EB030264EB78
:100F3000090404FA06F622FA01F31E43CC40C5E97F
:100F4000006400214FE7B1FBF2FC010C41EA0E41C5
:100F500080B240EA01423B4638463C46B846BE466F
:100F60002026B1FBF7F1A2EB080241EA0C4166E74B
:100F7000014618E710462CE7C6F120022EFA02F3CC
:100F8000B740B14020FA02F24FEA174E0A43B3FBD2
:100F9000FEF8BCB20EFB1833110C41EA034108FB0A
:100FA00004F9B04089454FEA104380B23ED9791820
:100FB00008F1FF3C01D289451FD8A1EB0901B1FB23
:100FC000FEF909FB04F80EFB191192B242EA014244
:100FD000424529D2BA1809F1FF31C4D24245C2D2E2
:100FE000A9F102013A44BEE7F0459DD2BEEB0203EF
:100FF0006CEB070C0138E14696E7A7EB0909494479
:10100000A8F1020CB1FBFEF909FB04F8DBE773461B
:101010007FE7504666E70846FDE63B44023A33E781
:10102000ACF1020C3B441CE749469CE7A1EB0901EB
:10103000C446B1FBFEF909FB04F8C4E7704700BFE2
:1010400080B582B000AF264B9B6C254A43F002036B
:101050009364234B9B6C03F002037B607B68204B03
:101060009B6C1F4A43F0010393641D4B9B6C03F080
:1010700001033B603B68002201210C2002F0ADFF20
:101080000C2002F0C6FF002201210D2002F0A5FF76
:101090000D2002F0BEFF002201210E2002F09DFF74
:1010A0000E2002F0B6FF002201210F2002F095FF72
:1010B0000F2002F0AEFF00220121442002F08DFF3C
:1010C000442002F0A6FF00220121452002F085FF06
:1010D000452002F09EFF00BF0837BD4680BD00BF1F
:1010E0000010024080B588B000AF07F10C03002269
:1010F0001A605A609A60DA601A61414BDB6C404AB0
:1011000043F08003D3643E4BDB6C03F08003BB6091
:10111000BB683B4BDB6C3A4A43F00103D364384B6A
:10112000DB6C03F001037B607B68354BDB6C344A7E
:1011300043F00203D364324BDB6C03F002033B60E9
:101140003B68002203214FF0904003F09DFB0122F9
:1011500010214FF0904003F097FB012241F2010172
:10116000284803F091FB1323FB6001233B6101231B
:101170007B610223BB6107F10C0319464FF09040DD
:1011800003F0F0F941F20103FB6001233B6100230E
:101190007B610223BB6107F10C031946194803F078
:1011A000E1F90623FB6000233B6102237B6107F129
:1011B0000C031946134803F0D5F940F60843FB60C9
:1011C00000233B6101237B6107F10C0319460D48A5
:1011D00003F0C8F91023FB604FF488133B6102232E
:1011E0007B6107F10C031946064803F0BBF90022A6
:1011F00000210A2002F0F1FE00BF2037BD4680BD6D
:10120000001002400004004890B591B002AF02F017
:1012100094FD00F025FAFFF765FFFFF711FF01F0DD
:10122000FFFD01F02BF908F079F901F02FFD01F035
:10123000DFFC01F063FD714806F034F9704806F0F8
:1012400031F9704806F02EF901F0DAF802F088FB67
:1012500000F04EFB0346002B4BD101226A496B483C
:101260000BF0F4FE03461A46694B1A70684B1B7864
:10127000002B01D000F043FA664B1B68184600F0C3
:101280005AFE0346002B01D001F04CF800F06CFE32
:10129000F862614B1A68FB6A009313465F4A142197
:1012A0005F480EF0C9F906225D495E480BF014FF55
:1012B0000346002B02D15C4B01221A705B4C3B466B
:1012C000184601F05BF823463A461068516803C39C
:1012D0004FF400625649574806F012FE554B1B6802
:1012E0001A68544B1B6842F010021A600A2002F080
:1012F00090FE00F0F9F800F0B7F84F4B1B889BB256
:10130000002B2AD04C4B00221A8007F10C03184600
:1013100002F0E0F8034687F82B30484B1B68484A38
:10132000136097F82B30002B17D107F10C031846E8
:1013300002F044FAC7E90801D7E9080101F0FCFF0F
:1013400002F064FD03463F4A13603F4B06221A70C9
:1013500002214FF0904003F0AFFA02F0B3FB02F02D
:1013600055FDF861394B1B68FA69D31A4FF47A724C
:101370009342C0D3354AFB69136002F02FFC2A4B1D
:101380001B78DBB2012BB6D100237B6300233B63C8
:1013900013E07B6B2E4A98187B6BC3F580612D4A56
:1013A0003B6B13441B782C4A0EF046F902467B6BCC
:1013B00013447B633B6B01333B63284B1B881A460A
:1013C0003B6B9342E5DB7B6B214A98187B6BC3F543
:1013D0008063234A19460EF02FF91D48FEF758FF87
:1013E0000246204B1A490F480CF0C8FA0346002B5E
:1013F00081D10C480CF076FC7DE700BF6817002017
:10140000B41700200018002030410108A80A00206D
:101410003C0F002004000020080000203441010897
:1014200060130020E00C0020480F0020400F002037
:10143000A40200204C180020A60A0020240000204E
:101440002800002058130020490F002054130020CA
:10145000540F002034320020404101083433002072
:1014600048410108380F002080B582B000AF1A4B08
:10147000D3E900014FF000024FF000030A000023FF
:10148000D3B203F00103FB71FB79002B0FD1134B97
:101490001B88002B0ED101214FF0904003F00CFA75
:1014A0000F4B01221A800D4B01221A8002E00B4BD8
:1014B00000221A800A4B1B889BB2012B07D1084BD4
:1014C00000221A80074B1B680133064A136000BFD5
:1014D0000837BD4680BD00BF782900205E1300207C
:1014E0005C1300202000002080B500AF04E0084B12
:1014F0001B68013B064A1360054B1B68002B04DB8D
:1015000001F0C8FD0346022BF1D100BF80BD00BF32
:10151000000000202DE9B0438AB000AF0346FB80F5
:10152000FB88102B7AD102F071FC78623D4B1B785E
:10153000DBB2062B1DD13C4B1B687A6AD31AB3F57C
:10154000FA6F16D2374B07221A70384BD3E90023B3
:10155000374912EB010843F10009C7E90689D7E9C9
:10156000060101F0E9FE02F051FC0346314A136026
:1015700054E02C4B1B78DBB2062B0AD12A4B1B689C
:101580007A6AD31AB3F5FA6F03D3264B00221A7086
:1015900044E0284B1B687A6AD31A40F2EA3293423D
:1015A00006D9244A7B6A13601E4B01221A7035E06B
:1015B000204B1B687A6AD31A40F2E63293422DD947
:1015C0001023FB60FB6883F3118800BF194A7B6A14
:1015D0001360144B1B78DBB2042B07D8114B1B781C
:1015E000DBB20133DAB20F4B1A7011E00D4B1B78EE
:1015F000DBB2072B0CD10D4BD3E900230C49541857
:1016000043F10005C7E90445D7E9040101F094FE60
:101610000023BB60BB6883F3118800BF2837BD4639
:10162000BDE8B083490F0020581300208029002016
:1016300040420F00500F002080B584B000AFF8602A
:10164000B9607A607B689AB23223B968034806F0C1
:1016500051FB7B6818461037BD4680BD4C180020F2
:1016600080B596B000AF07F114034422002118465C
:101670000EF099F83B4600221A605A609A60DA60D0
:101680001A614FF4007003F057F90346002B01D0A4
:1016900000F035F801237B614FF4A023BB610223E6
:1016A000FB6303233B6401237B641423BB64072394
:1016B000FB6402233B6502237B6507F11403184694
:1016C00003F090F90346002B01D000F018F80F2327
:1016D0003B6003237B600023BB600023FB6000238F
:1016E0003B613B460421184603F090FD0346002B66
:1016F00001D000F004F800BF5837BD4680BD80B56A
:1017000000AF72B600BF012201214FF0904003F0FC
:10171000BBF8F8E780B586B002AF0346FB7107F16E
:101720000F02F91D642300930123044804F071FBA8
:10173000FB7B18461037BD4680BD00BFDC1500207E
:1017400080B582B000AF02F061FB034614337B60CA
:1017500005E002F05BFB02467B68934207D3064B31
:101760001B689B6803F08003802BF2D000E000BF71
:1017700000BF0837BD4680BDDC15002080B582B0B3
:1017800000AF02F043FB034603F5FA737B60FF20D2
:10179000FFF7C0FF0346FB70FB78FF2B01D100234E
:1017A00006E002F033FB02467B689342EFD8012348
:1017B00018460837BD4680BD80B483B000AF78605E
:1017C0007B681A68064B1B689A4202D1054B0122BE
:1017D0001A7000BF0C37BD465DF8047B704700BF30
:1017E000DC1500207513002080B483B000AF786052
:1017F0007B681A68064B1B689A4202D1054B01228E
:101800001A7000BF0C37BD465DF8047B704700BFFF
:10181000DC1500207513002080B582B000AF0122D6
:101820004FF48051094803F02FF80023FB7105E0C5
:10183000FF20FFF76FFFFB790133FB71FB79092B69
:10184000F6D900BF00BF0837BD4680BD0004004880
:1018500080B584B000AF03463960FB711346BB719D
:101860000023FB7302E0FB7B0133FB73FF20FFF7D8
:1018700051FF0346FF2B02D0FB7BC72BF3D9FB792B
:1018800043F04003DBB21846FFF744FF3B681B0EF2
:10189000DBB21846FFF73EFF3B681B0CDBB2184675
:1018A000FFF738FF3B681B0ADBB21846FFF732FF31
:1018B0003B68DBB21846FFF72DFFBB791846FFF7F0
:1018C00029FF0023FB73FF20FFF724FF0346BB73B0
:1018D000FB7B0133FB7397F90E30002B02DAFB7BA5
:1018E000FF2BF0D1BB7B18461037BD4680BD0000F2
:1018F00090B585B000AF3B1D00221A609A80FFF7BB
:101900008BFF00224FF480517D4802F0BDFF64231D
:10191000FB81952200210020FFF79AFF03463B73CD
:10192000FB89013BFB813B7B012B02D0FB89002B18
:10193000EFD1FB89002B07D101224FF48051704871
:1019400002F0A2FF0623D6E06E4B00221A70872217
:101950004FF4D5710820FFF77BFF03463B733B7BB9
:10196000012B61D100237B730DE07C7BFF20FFF70F
:10197000D1FE03461A4604F110033B4403F80C2C35
:101980007B7B01337B737B7B032BEED9BB79012BF4
:1019900040F09880FB79AA2B40F094804FF6FE73BC
:1019A000FB81002200213720FFF752FF00224FF079
:1019B00080412920FFF74CFF03463B733B7B002B04
:1019C00004D0FB895A1EFA81002BEAD100220021A3
:1019D0003A20FFF73DFF03463B73FB89002B71D094
:1019E0003B7B002B6ED100237B730DE07C7BFF20C3
:1019F000FFF790FE03461A4604F110033B4403F838
:101A00000C2C7B7B01337B737B7B032BEED93B79E7
:101A100003F04003002B03D03A4B06221A7051E02A
:101A2000384B04221A704DE0002200213720FFF7C6
:101A30000FFF002200212920FFF70AFF03463B7316
:101A40003B7B012B1AD82F4B02221A704FF6FE73E4
:101A5000FB81002200213720FFF7FAFE002200213F
:101A60002920FFF7F5FE03463B733B7B002B1AD082
:101A7000FB895A1EFA81002BEBD114E0214B012285
:101A80001A704FF6FE73FB81002200210120FFF740
:101A9000DFFE03463B733B7B002B04D0FB895A1EC1
:101AA000FA81002BF0D1FB89002B08D000224FF4E3
:101AB00000711020FFF7CCFE0346002B02D0114B23
:101AC00000221A7001224FF480510D4802F0DCFE12
:101AD0000D4B0822DA610C4804F0F8F8094B1B782A
:101AE000002B07D04FF40072FF2108480DF05BFE79
:101AF000002300E0062318461437BD4690BD00BF02
:101B00000004004874130020DC1500207813002026
:101B100080B584B000AF78600B467B800023FB81EA
:101B2000FF20FFF7F7FD03467B73FB890133FB8141
:101B30007B7BFE2B04D0FB8949F63F429342EFD9D1
:101B4000FB8949F63F42934201D902232CE0184B0E
:101B500000221A707B887A681649174804F066FCE0
:101B60000346002B01D003231EE002F04FF9034689
:101B70006433BB600AE002F049F90246BB68934255
:101B800004D20D4804F0D8FD04230DE0084B1B7867
:101B9000DBB2002BEFD0FFF7D3FDFF20FFF7BAFD3C
:101BA000FF20FFF7B7FD002318461037BD4680BD64
:101BB0007513002078130020DC15002080B586B056
:101BC00000AF78600B46FB700023FB82FF20FFF71D
:101BD000A1FD0346FF2B08D0FB8A0133FB82FB8A61
:101BE0004FF6FF729342F1D100E000BFFB8A4FF63F
:101BF000FF72934201D101233FE0FB781846FFF7C3
:101C000089FDFB78FD2B37D01E4B00221A704FF454
:101C1000007279681C4804F01BFB0346002B01D0BE
:101C200002232AE002F0F2F8034664333B610AE043
:101C300002F0ECF802463B69934204D2124804F0E9
:101C40007BFD032319E00F4B1B78DBB2002BEFD099
:101C5000FFF776FDFF20FFF75DFDFF20FFF75AFD40
:101C6000FF20FFF757FD0346FB73FB7B03F01F03C9
:101C7000052B01D0042300E0002318461837BD4689
:101C800080BD00BF75130020DC15002080B586B034
:101C900000AFF860B9601346FB7100224FF4805129
:101CA000264802F0F1FD264B1B78062B02D0BB68BC
:101CB0005B02BB60FB79012B11D10022B9681120B6
:101CC000FFF7C6FD0346FB75FB7D002B2AD14FF4C1
:101CD0000071F868FFF71CFF0346FB7522E0002245
:101CE000B9681220FFF7B4FD0346FB75FB7D002B9E
:101CF00018D14FF40071F868FFF70AFF0346FB752F
:101D0000FB6803F50073FB60FB79013BFB71FB791A
:101D1000002B02D0FB7D002BEBD0002200210C20F9
:101D2000FFF796FD01224FF48051044802F0ACFD0C
:101D3000FB7D18461837BD4680BD00BF0004004833
:101D40007413002080B586B000AFF860B960134608
:101D5000FB7100224FF48051384802F095FD384B5A
:101D60001B78062B02D0BB685B02BB60FB79012BA2
:101D70001AD10022B9681820FFF76AFD0346FB75E7
:101D8000FB7D002B4FD1FE21F868FFF717FF0346BC
:101D9000FB75FB7D002B46D1FFF7F0FC0346002BC3
:101DA00041D00123FB753EE0254B1B78012B0AD067
:101DB000002200213720FFF74BFDFB790022194656
:101DC0001720FFF745FD0022B9681920FFF740FDF5
:101DD0000346FB75FB7D002B25D1FC21F868FFF73E
:101DE000EDFE0346FB75FB7D002B0AD1FB6803F576
:101DF0000073FB60FB79013BFB71FB79002BECD19D
:101E000000E000BFFD210020FFF7D8FE0346002BB5
:101E100007D1FFF7B3FC0346002B04D00123FB7569
:101E200001E00123FB7501224FF48051034802F0C9
:101E30002BFDFB7D18461837BD4680BD00040048C9
:101E40007413002080B584B000AF786000224FF496
:101E50008051104802F018FD002200210920FFF7F0
:101E6000F7FC0346002B05D110217868FFF750FEE0
:101E70000346FB7301224FF48051064802F004FD33
:101E8000FB7B002B01D0012300E000231846103714
:101E9000BD4680BD0004004880B586B000AF3B461B
:101EA0001846FFF7CFFF0346002B01D000233EE08A
:101EB0003B7803F0C003402B0CD17B7A1A463B7A67
:101EC0001B029BB213449BB201333B823B8A9B02B1
:101ED0007B612BE07B7903F00F03DAB2BB7ADB097D
:101EE000DBB21344DAB27B7A5B00DBB203F00603A9
:101EF000DBB21344DBB20233FB743B7A9B09DBB2E7
:101F00001A46FB799B009BB213449AB2BB799B02A1
:101F10009BB203F440639BB213449BB201333B82F8
:101F20003A8AFB7C093B02FA03F37B617B69184622
:101F30001837BD4680BD80B5CAB000AF07F59473B1
:101F4000A3F59273186007F1080207F59473A3F5DF
:101F50009273114618680CF057F90346184607F5B6
:101F60009477BD4680BD000080B5E4B000AF544B0F
:101F70001B68B3F1FF3F40F09680524B1B68C7F8D7
:101F80008031D7F88001FEF783F9C7F87C014FF064
:101F9000FF33C7F88C313B464B4918460BF0FEFF28
:101FA0000346002B79D163E007F150031A33C7F8D9
:101FB0007831D7F87801FEF76BF9C7F87401D7F8D4
:101FC0007C310933D7F874219A4251D1D7F87C215A
:101FD000D7F88011D7F878010DF0EDFB0346002B00
:101FE00046D10023C7F888310023C7F8843124E0A4
:101FF000D7F88421D7F87C311344D7F878211344DB
:102000001B7887F8733197F873312F2B19D997F80C
:102010007331392B15D8D7F8882113469B00134408
:102020005B001A4697F87331303B1344C7F8883188
:10203000D7F884310133C7F88431D7F88431042BC1
:10204000D6DDD7F87C310533D7F8782113441F4902
:102050001846FEF7BDF80346002B09D1D7F88821B2
:10206000D7F88C319A4203DDD7F88831C7F88C3124
:1020700007F150023B46114618460CF073F8034630
:10208000002B06D107F5C873A3F5A0739B7E002B28
:102090008AD13B4618460CF03FF8D7F88C3123EA3A
:1020A000E373074A1360064B1B680133044A13604D
:1020B000034B1B68184607F5C877BD4680BD00BFB7
:1020C0000C000020080000205C410108604101086C
:1020D00090B5ADF51D7D00AF07F51C73A3F51B731F
:1020E00018600A4607F51C73A3F26E231A801D4B75
:1020F000196807F11003012218460AF0EDFF0346A4
:1021000087F86F3297F86F32002B24D107F51C73D4
:10211000A3F26E231B88013B1C4607F10C0307F555
:102120001C72A2F51B7107F11000224609680BF022
:10213000ADFA07F51C73A3F519731B6807F51C723C
:10214000A2F51B721268134400221A7007F11003E3
:1021500018460BF0F9FE97F86F32184607F51D7711
:10216000BD4690BD0400002080B586B000AF786009
:102170003960484B1B889BB23B81474B1B889BB205
:102180007B81464B1B889BB2BB81454B1B889BB216
:10219000FB81444938680DF020FB38613B69002B16
:1021A00007D17B681A4607F1080303CB1060516022
:1021B0006CE03B690A337B6159E00C223A4978694B
:1021C0000DF0F9FA0346002B09D17B690D337B61D1
:1021D00078690CF0C2F903469BB23B8138E00622D5
:1021E000324978690DF0E7FA0346002B09D17B6983
:1021F00007337B6178690CF0B0F903469BB27B81B1
:1022000026E007222A4978690DF0D5FA0346002B0B
:1022100009D17B6908337B6178690CF09EF903462C
:102220009BB2BB8114E00522224978690DF0C3FA04
:102230000346002B0CD17B6906337B6178690CF077
:102240008CF903469BB2FB8102E07B6901337B6121
:102250007B691B780A2B03D07B691B78002BF4D198
:102260007B691B780A2B02D17B6901337B617B6917
:102270001B78002B03D07B691B785B2B9DD17B687F
:102280001A4607F1080303CB1060516078681837CD
:10229000BD4680BD2E000020180000201A0000203E
:1022A0001C000020684101087441010884410108B4
:1022B0008C4101089441010880B582B000AF78607C
:1022C0007B681A88134B1A807B685A88124B1A80D5
:1022D0007B689A88114B1A807B68DA88104B1A80C9
:1022E0000D4B1B889BB21946012000F09FFE0B4B43
:1022F0001B889BB21946022000F098FE084B1B88F1
:102300009BB21946042000F091FE00BF0837BD467D
:1023100080BD00BF2E000020180000201A00002001
:102320001C00002080B5ADF51A7D00AF114B196877
:1023300007F108030A2218460AF0CEFE0346002BD6
:1023400013D10D4BC7F86432D7F86402FDF7A0FF34
:1023500002463B1D07F10800D7F864120BF00EFB94
:1023600007F1080318460BF0EFFD00BF07F51A77D9
:10237000BD4680BD040000209C41010880B596B098
:1023800000AFF8601A4B1B889BB23B82194B1B882D
:102390009BB27B82184B1B889BB2BB82174B1B885E
:1023A0009BB2FB8207F1180340211846FFF790FE0D
:1023B0000346002B11D13B4607F11802114618467F
:1023C000FFF7D2FE07F110033A461068516803C3C5
:1023D00007F110031846FFF76FFFFB681A4607F175
:1023E000100303CB10605160F8685837BD4680BDBC
:1023F0002E000020180000201A0000201C000020E1
:1024000080B500AF1B4B1C4A1A601A4B4FF4827206
:102410005A60184B00229A60164B4FF4E062DA6063
:10242000144B00221A61134B00225A61114B4FF4D6
:1024300000729A610F4B0822DA610E4B00221A6279
:102440000C4B00225A620B4B00229A62094B072266
:10245000DA62084B00221A63064B08225A630548C9
:1024600003F034FC0346002B01D0FFF748F900BF0E
:1024700080BD00BF781500200030014080B500AF5E
:102480001B4B1C4A1A601A4B4FF482725A60184B4D
:1024900000229A60164B4FF4E062DA60144B00227F
:1024A0001A61134B00225A61114B4FF400729A616A
:1024B0000F4B3822DA610E4B00221A620C4B0022BD
:1024C0005A620B4B00229A62094B0722DA62084BD0
:1024D00000221A63064B08225A63054803F0F6FBF4
:1024E0000346002B01D0FFF70AF900BF80BD00BFF3
:1024F000DC1500200038004080B58CB000AF78605B
:1025000007F11C0300221A605A609A60DA601A61AF
:102510007B681B689B4A934240F095809A4B1B6EE8
:10252000994A43F480531366974B1B6E03F4805310
:10253000BB61BB69944BDB6C934A43F00103D364EA
:10254000914BDB6C03F001037B617B69A023FB6192
:1025500002233B6200237B620323BB620523FB62F1
:1025600007F11C0319464FF0904001F0FBFF402398
:10257000FB6102233B6201237B620323BB620523D1
:10258000FB6207F11C0319464FF0904001F0EAFF8F
:102590007E4B7F4A1A607D4B01225A607B4B0022A2
:1025A0009A607A4B0022DA60784B80221A61774B6E
:1025B00000225A61754B00229A61744B0022DA6145
:1025C000724B00221A62714801F04AFD0346002B4B
:1025D00001D0FFF794F87B686C4A9A656B4A7B6878
:1025E00093626C4B6C4A1A606A4B01225A60694BC9
:1025F00010229A60674B0022DA60664B80221A61D3
:10260000644B00225A61634B00229A61614B0022A5
:10261000DA61604B00221A625E4801F021FD034638
:10262000002B01D0FFF76BF87B685A4A5A65594A6C
:102630007B68936200220121232001F0CEFC23203D
:1026400001F0E7FC99E07B681B68544A934240F034
:1026500094804D4B9B6D4C4A43F4804393654A4BA9
:102660009B6D03F480433B613B69474BDB6C464AFF
:1026700043F00203D364444BDB6C03F00203FB60C2
:10268000FB684FF42043FB6102233B6200237B6223
:102690000323BB620523FB6207F11C031946404874
:1026A00001F060FF4FF48043FB6102233B62012392
:1026B0007B620323BB620523FB6207F11C031946FF
:1026C000374801F04FFF374B374A1A60354B01222C
:1026D0005A60344B00229A60324B0022DA60314B50
:1026E00080221A612F4B00225A612E4B00229A61E0
:1026F0002C4B0022DA612B4B00221A62294801F090
:10270000AFFC0346002B01D0FEF7F9FF7B68254A9A
:102710009A65244A7B689362244B254A1A60234BAE
:1027200001225A60214B10229A60204B0022DA606D
:102730001E4B80221A611D4B00225A611B4B002246
:102740009A611A4B0022DA61184B00221A6217486C
:1027500001F086FC0346002B01D0FEF7D0FF7B681A
:10276000124A5A65114A7B68936200220121242093
:1027700001F033FC242001F04CFC00BF3037BD4693
:1027800080BD00BF00300140001002404016002014
:102790001C00024088160020300002400038004033
:1027A00000040048D0160020440002401817002002
:1027B0005800024080B483B000AF0F4B1B6E0E4A2E
:1027C00043F0010313660C4B1B6E03F001037B60A7
:1027D0007B68094B9B6D084A43F080539365064B19
:1027E0009B6D03F080533B603B6800BF0C37BD46D8
:1027F0005DF8047B704700BF0010024080B400AF5A
:1028000000BFFDE780B400AF00BFFDE780B400AFBC
:1028100000BFFDE780B400AF00BFFDE780B400AFAC
:1028200000BFFDE780B400AF00BFBD465DF8047B8C
:10283000704780B400AF00BFBD465DF8047B7047B1
:1028400080B400AF00BFBD465DF8047B704780B523
:1028500000AF01F0C7FA01F0F6FB00BF80BD80B504
:1028600000AF102002F042F800BF80BD80B500AF7D
:10287000024801F08CFD00BF80BD00BF4016002063
:1028800080B500AF024801F082FD00BF80BD00BFEF
:102890008816002080B500AF024801F078FD00BF27
:1028A00080BD00BFD016002080B500AF024801F007
:1028B0006EFD00BF80BD00BF1817002080B500AFBF
:1028C000024804F043FE00BF80BD00BF681700202F
:1028D00080B500AF024804F04FF800BF80BD00BFD4
:1028E0007815002080B500AF024804F045F800BF1D
:1028F00080BD00BFDC15002080B582B000AF41482C
:1029000005F0FCFB3F4B1B68DB6903F01003102B49
:1029100074D13C4B1B6810221A623A4805F03CFB0C
:10292000384B5B6F1B685B689BB2C3F500639AB260
:10293000354B1A8010237B607B6883F3118800BFBE
:10294000324B1A68324B1B689A421AD0304B1B68C4
:102950002D4A128892B213442E4A934211D82C4B1E
:102960001B68294A128892B22B4918460DF051FD76
:10297000254B1B889AB2264B1B681344244A1360CC
:1029800021E0224B1A68224B1B689A421BD1204B34
:102990001B681D4A128892B213441E4A934212D8F1
:1029A000194B1B889BB21A461B491C480DF031FD80
:1029B000164B1A4A1A60154B1B68134A128892B2BA
:1029C0001344134A136000233B603B6883F3118870
:1029D00000BF0D4B1B889BB2002B09D0104B1B88EE
:1029E0009BB201339AB20E4B1A800E4B01221A8011
:1029F0004FF400620849034805F082FA00BF083727
:102A0000BD4680BD4C180020A40A002028000020EC
:102A10002400002078290020A4020020781900203A
:102A200034000020A60A002080B500AF024804F060
:102A30008DFD00BF80BD00BFB417002080B500AF82
:102A4000024804F083FD00BF80BD00BF00180020D5
:102A500080B500AF024801F09AFC00BF80BD00BF06
:102A60001C19002080B500AF024801F090FC00BFA7
:102A700080BD00BFD418002080B400AF01231846E9
:102A8000BD465DF8047B704780B582B000AF7860CA
:102A900039600DF087FC034616221A604FF0FF33B1
:102AA00018460837BD4680BD80B582B000AF78605B
:102AB0004FF0FF317868FFF7E7FF00BFFDE780B513
:102AC00086B000AFF860B9607A6000237B610AE0ED
:102AD000AFF300800146BB685A1CBA60CAB21A70D4
:102AE0007B6901337B617A697B689A42F0DB7B68A2
:102AF00018461837BD4680BD80B483B000AF7860FB
:102B00004FF0FF3318460C37BD465DF8047B704725
:102B100080B483B000AF786039603B684FF40052F6
:102B20005A60002318460C37BD465DF8047B704799
:102B300080B483B000AF7860012318460C37BD46DF
:102B40005DF8047B704780B485B000AFF860B96071
:102B50007A60002318461437BD465DF8047B704741
:102B600080B586B000AF7860144A154BD31A7B61EC
:102B70007B693B61134B1B68002B02D1114B124A3E
:102B80001A60104B1A687B6813443A699A4207D25C
:102B90000DF008FC03460C221A604FF0FF3309E0E9
:102BA000084B1B68FB60074B1A687B681344054A97
:102BB0001360FB6818461837BD4680BD00C0002072
:102BC0000004000064170020F834002080B400AF37
:102BD000064BD3F88830054A43F47003C2F88830B6
:102BE00000BFBD465DF8047B704700BF00ED00E00C
:102BF00080B588B000AF07F1100300221A605A6058
:102C00009A60DA603B1D00221A605A609A601E4B7F
:102C10004FF080421A601C4B4F225A601A4B002220
:102C20009A60194B4FF0FF32DA60174B00221A619D
:102C3000154B00229A61144804F0DCFB0346002B7C
:102C400001D0FEF75CFD4FF480533B6107F11003A8
:102C500019460D4804F081FD0346002B01D0FEF714
:102C60004EFD00237B600023FB603B1D1946064898
:102C700004F06EFF0346002B01D0FEF740FD00BFBD
:102C80002037BD4680BD00BF6817002080B584B0E6
:102C900000AF3B1D00221A605A609A60154B164A1D
:102CA0001A60144B41F63F725A60124B00229A6030
:102CB000104B4CF24F32DA600E4B00229A610D48F5
:102CC00004F098FB0346002B01D0FEF718FD00230B
:102CD0007B600023FB603B1D1946064804F038FF6B
:102CE0000346002B01D0FEF70AFD00BF1037BD469A
:102CF00080BD00BFB41700200010004080B584B034
:102D000000AF3B1D00221A605A609A60144B154AAE
:102D10001A60134B4F225A60114B00229A60104BDD
:102D200040F2E732DA600E4B00229A610C4804F060
:102D300061FB0346002B01D0FEF7E1FC00237B6022
:102D40000023FB603B1D1946054804F001FF0346C4
:102D5000002B01D0FEF7D3FC00BF1037BD4680BD6D
:102D6000001800200014004080B586B000AF7860E5
:102D70007B681B68B3F1804F14D1264B9B6D254AAD
:102D800043F001039365234B9B6D03F001037B61CB
:102D90007B69002201211C2001F01FF91C2001F099
:102DA00038F932E07B681B681B4A934214D1194BF7
:102DB0009B6D184A43F010039365164B9B6D03F00F
:102DC00010033B613B6900220121362001F005F927
:102DD000362001F01EF918E07B681B680F4A934209
:102DE00013D10C4B9B6D0B4A43F020039365094BA9
:102DF0009B6D03F02003FB60FB6800220521372058
:102E000001F0EBF8372001F004F900BF1837BD4698
:102E100080BD00BF001002400010004000140040C0
:102E200080B500AF144B154A1A60134B4FF416428D
:102E30005A60114B00229A600F4B0022DA600E4B51
:102E400000221A610C4B0C225A610B4B00229A6132
:102E5000094B0022DA61084B00221A62064B00225D
:102E60005A62054804F0F8FE0346002B01D0FEF735
:102E700046FC00BF80BD00BF4C1800200038014058
:102E800080B5A2B000AF786007F1740300221A6029
:102E90005A609A60DA601A6107F114036022002117
:102EA00018460CF080FC7B681B684F4A934240F048
:102EB000968001237B6100237B6307F1140318468E
:102EC00002F0C8FB0346002B01D0FEF718FC474B6D
:102ED0001B6E464A43F480431366444B1B6E03F457
:102EE00080433B613B69414BDB6C404A43F001034B
:102EF000D3643E4BDB6C03F00103FB60FB684FF4D3
:102F0000C0637B670223BB670123FB670323C7F80A
:102F100080300723C7F8843007F1740319464FF057
:102F2000904001F01FFB324B324A1A60304B0222B4
:102F30005A602F4B00229A602D4B0022DA602C4BF6
:102F400080221A612A4B00225A61294B00229A6181
:102F5000274B2022DA61264B4FF400521A62244894
:102F600001F07EF80346002B01D0FEF7C8FB7B681A
:102F70001F4A5A671E4A7B6893621F4B1F4A1A609A
:102F80001D4B02225A601C4B10229A601A4B0022E1
:102F9000DA60194B80221A61174B00225A61164BD6
:102FA00000229A61144B0022DA61134B4FF4005255
:102FB0001A62114801F054F80346002B01D0FEF7C5
:102FC0009EFB7B680C4A1A670B4A7B68936200225F
:102FD0000021252001F001F8252001F01AF800BF9A
:102FE0008837BD4680BD00BF003801400010024058
:102FF000D4180020800402401C1900206C040240F8
:1030000080B586B002AF0346FB7107F10F02F91DD0
:10301000642300930123044802F0FBFEFB7B184667
:103020001037BD4680BD00BF7815002080B582B046
:1030300000AF03460A46FB711346BB800022012104
:10304000134801F021FCFB791846FFF7D9FF002057
:10305000FFF7D6FF0020FFF7D3FF0020FFF7D0FFD8
:103060000020FFF7CDFFBB881B0A9BB2DBB21846DE
:10307000FFF7C6FFBB88DBB21846FFF7C1FF01228E
:103080000121034801F000FC00BF0837BD4680BDA8
:10309000000400482DE9F04F97B000AF04217448B8
:1030A00001F0DAFB0346012B01D10223DAE0002212
:1030B00001216F4801F0E8FB802387F8553097F82D
:1030C00055301846FFF79CFF0023A7F856300CE058
:1030D000B7F856400020FFF793FF0346654A1355A3
:1030E000B7F856300133A7F85630B7F85630052BED
:1030F000EED9012201215E4801F0C6FB5D4B1B7831
:10310000DBB2DB08DBB20133DBB25B4A1370594B35
:103110005B78DBB25B08DBB21AB2564B1B78DBB2D2
:103120001BB2DB011BB203F460731BB213431BB26F
:103130009BB2524A1380514B1B889BB2B3F5007F60
:1031400001D901238EE04B4B5B78DBB2DBB200226E
:10315000BB64FA644FF000024FF00003B96C0B003F
:1031600000220021396403F001037B64414B9B780A
:10317000DBB2DBB20022BB63FA63D7E90E120B4667
:103180004FEA13290B464FEA0368D7E910120B46A2
:1031900043EA08033B63134643EA09037B63354B69
:1031A000DB78DBB2DBB20022BB62FA624FF00002D6
:1031B0004FF00003D7E90A8949460B04414643EA28
:1031C000114341460A04D7E90C89414641EA020508
:1031D000494619430E46274B1B79DBB2DBB200226E
:1031E0003B627A624FF000024FF00003D7E9088992
:1031F00049460B02414643EA116341460A0245EA49
:10320000020A46EA030B1B4B5B79DBB2DBB20022FE
:10321000BB61FA61D7E906120B464AEA03033B6138
:1032200013464BEA03037B61154BD7E90412C3E94C
:103230000012144B1B68DA17BB60FA604FF00002F3
:103240004FF00003B9684B0000220D49D1E900019D
:1032500014183C604B417B60094BD7E90012C3E96D
:103260000012002318465C37BD46BDE8F08F00BF52
:10327000000400487019002064190020661900201D
:10328000681900202000002090B585B000AF78605C
:103290000B467B807B88012B04D87B681B78FB81E5
:1032A000FB8910E07B88013B7A6813441B781C463D
:1032B0007B88013B9BB219467868FFF7E5FF034620
:1032C0002344FB81FB8918461437BD4690BD00009E
:1032D0002DE9B00383B000AF164BD3E900894FF05E
:1032E00000024FF000034A46002313467B604FF074
:1032F00080435B6A3B600F4BD3E900894FF00002CB
:103300004FF000034A4600237B689342E4D13B68B8
:10331000002218461146074BD3E90023841841EBDD
:10332000030522462B46104619460C37BD46BDE81C
:10333000B00370477829002080B582B000AFC7E99C
:1033400000010849D7E90023C1E90023FFF7C0FFC6
:1033500002460B460449C1E9002300BF0837BD46B9
:1033600080BD00BF802900208829002080B582B060
:1033700000AF786079680968B1F1804F10D11C49BD
:103380000978C9B2002903D0194B00221A7007E04E
:103390001849D1E900014B1C02461649C1E9002336
:1033A0007B681B68144A934206D1144B1B889BB25E
:1033B00001339AB2114B1A80104B1B889BB2052B1C
:1033C00004D900F021F80D4B00221A807B681B689D
:1033D0000B4A934208D10B4B1B68002B04D0094BBE
:1033E0001B68013B074A136000BF0837BD4680BD1C
:1033F000320000207829002000100040922900208F
:10340000001400404C0F002080B582B000AF0E23A6
:10341000FB804AF65523BB8047F6FE637B80BB8862
:103420001B0A9BB2DAB2254B1A70BB88DAB2234B67
:103430005A70234B1A78214B9A70224B1B889BB2EF
:103440001B0A9BB2DAB21D4BDA701E4B1B889BB273
:10345000DAB21A4B1A71194B01225A71174B00221A
:103460009A71164B0222DA71174B1B78DAB2134BA2
:103470001A72164B1B889BB2DAB2104B5A72082193
:103480001348FFF701FF03463B803B881B0A9BB2B2
:10349000DAB20A4B9A723B88DAB2084BDA727B884E
:1034A0001B0A9BB2DAB2054B1A737B88DAB2034B64
:1034B0005A7300BF0837BD4680BD00BF38330020B7
:1034C0002C0000202E000020902900203000002039
:1034D0003A33002080B590B000AF786048E1984B57
:1034E0001868984B1A68964B1B68D31A1A460A211B
:1034F000FCF77EFE38633B6B002B01D101233FE1DB
:103500008F4B1B68FB623A6BFB6AD31A7B853B6B64
:1035100001338B4A13607B8D1A462421F86AFCF72D
:1035200067FE78627B6A002B04D13B6B0133844ACF
:1035300013601DE1844A07F1140392E80300186048
:103540000433198002330A0C1A70804A07F10C0305
:1035500092E8030018600433198002330A0C1A70D1
:1035600007F1140306221946786A0CF024F9034681
:10357000002B0AD007F10C0306221946786A0CF0DA
:103580001AF90346002B40F0F3807B6AFB630023AB
:10359000BB6309E0FB6B1B782C2B02D1BB6B0133A7
:1035A000BB63FB6B0133FB63FA6B3B6B9A4202D24A
:1035B000BB6B012BEEDD664B1B889BB2042B6ED9D7
:1035C0003A6B7B6AD31A9BB201339AB2614B1A8071
:1035D0004AF655237B8447F6FE633B847B8C1B0AAB
:1035E0009BB2DAB25C4B1A707B8CDAB25A4B5A70CF
:1035F0005A4B1A78584B9A70594B1B889BB21B0A2E
:103600009BB2DAB2544BDA70554B1B889BB2DAB2DC
:10361000514B1A71504B01225A714F4B06229A712D
:103620004C4B1B88DAB24C4BDA714A4B1B881A465A
:10363000796A4C480CF0EDFE464B1B8806339BB272
:1036400019464948FFF720FE0346FB83FB8B1B0A04
:103650009AB2404B1B880833D1B23F4AD1543D4BFC
:103660001B880933FA8BD1B23B4AD1543B8C1B0ADD
:103670009AB2384B1B880A33D1B2374AD154354BF2
:103680001B880B333A8CD1B2334AD154314B1B884F
:103690000C339AB22F4B1A802D4B00221A80334BD9
:1036A0001B78DBB2062B01D1022369E02F4B1B787C
:1036B000DBB2052B5CD1BB6B022B59D1FA6B3B6B98
:1036C0009A4255D2FB6B1B78412B51D100237B8151
:1036D0007B68981D7B6A0733062219460CF099FE19
:1036E0007B680C337A6A0E32128892B21A807B6A37
:1036F0007B630FE07B6B1B782C2B04D17B899BB207
:1037000001339BB27B817B899BB2092B07D07B6BFA
:1037100001337B637A6B3B6B9A42EBD300E000BFD3
:103720007B899BB2092B08D17B6B0133062219469A
:1037300078680CF06EFE002322E0012320E000BF39
:103740002800002024000020144201081C42010827
:1037500034000020182A0020982900202C00002086
:103760002E000020A02900209A290020490F0020C7
:10377000054B1A68054B1B689A423FF6B0AE012311
:1037800018464037BD4680BD240000202800002098
:1037900080B483B000AF78607B681B881A461346FC
:1037A0009B0013445B001A467B6802331B8813445A
:1037B00018460C37BD465DF8047B70472DE9B04FC5
:1037C000A4B000AF78620023A7F88E3015E0B7F8F8
:1037D0008E307A6A13441B78B7F88E20303B99B24A
:1037E0005300703307F1200213440A4623F8682C73
:1037F000B7F88E300133A7F88E30B7F88E300D2B26
:10380000E5D907F1280308331846FFF7C1FFC7F8C9
:10381000880007F1280304331846FFF7B9FFC7F8FB
:10382000840007F128031846FFF7B2FFC7F88000AD
:1038300007F128030C331846FFF7AAFFF86707F1D2
:10384000280310331846FFF7A3FFB86707F12803D2
:1038500014331846FFF79CFF786707F128031833E5
:103860001846FFF795FF386707F14403242200212B
:1038700018460BF098FFD7F888306433BB65D7F84B
:103880008430013B7B65D7F880303B65FB6FFB6480
:10389000BB6FBB647B6F7B6407F1440318460CF07D
:1038A00087F8C7E91A01D7E91A4522462B464FF097
:1038B00000004FF00001590141EAD2615001024677
:1038C0000B46B2EB040863EB05094FF000024FF022
:1038D00000034FEA492343EAD8534FEA482290466F
:1038E000994618EB040A49EB050B4FF000024FF024
:1038F00000034FEA8B1343EA9A634FEA8A12B2EB52
:103900000A01B96063EB0B03FB60D7E902120B46B7
:103910001B19BB61134645EB0303FB613B6F42F28E
:10392000107202FB03F3DA173B617A61D7E90645AF
:103930002346D7E9040102469B183B600B462A4602
:1039400042EB03037B60D7E90034C7E91A34D7E9B7
:103950001A23104619469037BD46BDE8B08F0000C7
:1039600080B500AF40F61602002102480BF01BFFA5
:1039700000BF80BD1C2A002080B584B000AF7860F5
:103980000B467B807B88002B08D07B88B3F5807F3B
:1039900004D8214B93F81438072B01D9002337E0C2
:1039A0001D4BB3F812381A461346DB0113445B0073
:1039B000194A1344FB60FB687A88796818460CF052
:1039C00028FDFB687A88A3F80021134BB3F812385E
:1039D00001335A4203F0070302F0070258BF534273
:1039E0009AB20D4BA3F812280B4B93F814380133FD
:1039F000DAB2094B83F81428074B93F81538002BDB
:103A000005D1054B012283F8152800F007F80123A2
:103A100018461037BD4680BD1C2A002080B582B0F4
:103A200000AF104B93F81438002B04D10D4B00223B
:103A300083F8152813E00B4BB3F810381A461346D9
:103A4000DB0113445B00074A13447B6079687B68A1
:103A5000B3F800319BB21A46034804F0D5F9083791
:103A6000BD4680BD1C2A00204C18002080B582B0C5
:103A700000AF78607B681B68104A934219D1104BE5
:103A8000B3F8103801335A4203F0070302F007027B
:103A900058BF53429AB20A4BA3F81028084B93F828
:103AA0001438013BDAB2064B83F81428FFF7B6FF4F
:103AB00000E000BF0837BD4680BD00BF00380140B0
:103AC0001C2A00202DE9F04F85B000AF3B4B1B684E
:103AD0000F333B4A93426BD2FFF7DCFA0346002BCD
:103AE00066D1384B1B78DBB20133DAB2354B1A7032
:103AF000324B1B68344A1278D2B21A702F4B1B68B3
:103B000001332E4A1360314B1B889BB21B0A9AB2B9
:103B10002A4B1B68D2B21A702C4B1B889AB2274BC7
:103B20001B680133D2B21A70244B1B680233234A3C
:103B30001360274BD3E9002310461946254BD3E9E0
:103B4000002310EB020841EB0309234BD3E90023C8
:103B5000B8EB020A69EB030BC7E900AB0023FB815A
:103B60001EE0FB89C3F10703D900D7E90023C1F1A7
:103B70002006B1F1200022FA01F403FA06F644EA25
:103B8000060402D443FA00F0044343FA01F50B4B58
:103B90001A68FB891344E2B21A70FB890133FB8176
:103BA000FB89072BDDD9054B1B680833034A1360DB
:103BB00000BF1437BD46BDE8F08F00BF38000020BD
:103BC0003333002094290020641900206619002056
:103BD00080290020681900208829002080B584B041
:103BE00000AF4AF65523FB8147F6FE63BB81364B97
:103BF0001B68364A9B1ADBB20133FB72FB891B0A36
:103C00009BB2DAB2324B1A70FB89DAB2304B5A707F
:103C1000304B1A782E4B9A702F4B1B889BB21B0A85
:103C20009BB2DAB22A4BDA702B4B1B889BB2DAB20A
:103C3000274B1A71264B01225A71254B07229A7184
:103C4000234AFB7AD371254B1B78DAB2204B1A72C8
:103C5000FB7A9BB206333B813B8919462048FFF72C
:103C600013FB0346FB80FB881B0A9AB2164B1B68AA
:103C7000D2B21A70144B1B680133FA88D2B21A7090
:103C8000BB891B0A9AB2104B1B680233D2B21A705E
:103C90000D4B1B680333BA89D2B21A70FB7A9BB200
:103CA0000C339AB20F4B1A800E4B1B8819460848EA
:103CB000FFF762FE094B00221A70034B034A1A6099
:103CC00000BF1037BD4680BD380000203D320020C7
:103CD000343200202C0000202E00002094290020E7
:103CE0003632002034330020DFF834D0FEF76EFF88
:103CF0000C480D490D4A002302E0D458C450043347
:103D0000C4188C42F9D30A4A0A4C002301E013601C
:103D10000432A242FBD30CF04BFBFDF775FAFEE731
:103D200000C000200000002084020020F0F30308FF
:103D300088020020F8340020FEE780B582B000AF92
:103D40000023FB71032000F03DF90F2000F00EF876
:103D50000346002B02D00123FB7101E0FEF72AFD90
:103D6000FB7918460837BD4680BD000080B584B099
:103D700000AF78600023FB73174B1B78002B23D018
:103D8000164B1A68144B1B7819464FF47A73B3FB21
:103D9000F1F3B2FBF3F3184600F049F90346002BA8
:103DA0000FD17B680F2B09D8002279684FF0FF30C4
:103DB00000F013F90A4A7B68136007E00123FB73E4
:103DC00004E00123FB7301E00123FB73FB7B184636
:103DD0001037BD4680BD00BF400000201400002009
:103DE0003C00002080B400AF064B1B781A46064BFF
:103DF0001B681344044A136000BFBD465DF8047B92
:103E0000704700BF400000204833002080B400AF5E
:103E1000034B1B681846BD465DF8047B704700BF26
:103E20004833002080B485B000AF78607B6803F031
:103E30000703FB600C4BDB68BB60BA684FF6FF03FF
:103E40001340BB60FB681A02BB68134343F0BF63B7
:103E500043F40033BB60044ABB68D36000BF14372F
:103E6000BD465DF8047B704700ED00E080B400AF14
:103E7000044BDB681B0A03F007031846BD465DF8D8
:103E8000047B704700ED00E080B483B000AF0346D0
:103E9000FB7197F90730002B0BDBFB7903F01F0256
:103EA000074997F907305B09012000FA02F241F84F
:103EB000232000BF0C37BD465DF8047B704700BF70
:103EC00000E100E080B483B000AF03463960FB71CD
:103ED00097F90730002B0ADB3B68DAB20C4997F9F7
:103EE00007301201D2B20B4483F800230AE03B688A
:103EF000DAB20849FB7903F00F03043B1201D2B296
:103F00000B441A7600BF0C37BD465DF8047B704742
:103F100000E100E000ED00E080B489B000AFF8609F
:103F2000B9607A60FB6803F00703FB61FB69C3F1CA
:103F30000703042B28BF0423BB61FB690433062B52
:103F400002D9FB69033B00E000237B614FF0FF32A5
:103F5000BB6902FA03F3DA43BB681A407B699A40F3
:103F60004FF0FF317B6901FA03F3D9437B680B40C3
:103F7000134318462437BD465DF8047B70470000A4
:103F800080B582B000AF78607B68013BB3F1807F81
:103F900001D301230FE00A4A7B68013B53600F21E4
:103FA0004FF0FF30FFF78EFF054B00229A60044B65
:103FB00007221A60002318460837BD4680BD00BF9F
:103FC00010E000E080B582B000AF78607868FFF75D
:103FD00029FF00BF0837BD4680BD80B586B000AF61
:103FE0000346B9607A60FB7300237B61FFF73EFFF5
:103FF00078617A68B9687869FFF78EFF024697F9A9
:104000000F3011461846FFF75DFF00BF1837BD4659
:1040100080BD80B582B000AF0346FB7197F90730D1
:104020001846FFF731FF00BF0837BD4680BD80B599
:1040300082B000AF78607868FFF7A2FF03461846A9
:104040000837BD4680BD80B500AF00F002F800BF64
:1040500080BD80B400AF00BFBD465DF8047B7047F3
:1040600080B485B000AF78607B68002B01D101235C
:1040700098E07B681B681A464D4B9A420FD87B68C4
:104080001B681A464B4B13444B4AA2FB03231B09E4
:104090009A007B685A647B68484A1A640EE07B6821
:1040A0001B681A46464B1344434AA2FB03231B09D1
:1040B0009A007B685A647B68424A1A647B680222D1
:1040C00083F825207B681B681B68FB60FB6823F472
:1040D000FF4323F07003FB607B689A687B68DB68B2
:1040E0001A437B681B691A437B685B691A437B68C8
:1040F0009B691A437B68DB691A437B681B6A13431D
:10410000FA681343FB607B681B68FA681A607B6877
:104110009B68B3F5804F39D07B681B6C274A93426C
:104120001AD1294B1A687B685B6C03F01C030F21C2
:1041300001FA03F3DB43244913400B60224B1A6856
:104140007B6859687B685B6C03F01C0301FA03F31E
:104150001D4913430B6019E01C4B1A687B685B6CAC
:1041600003F01C030F2101FA03F3DB43174913404B
:104170000B60164B1A687B6859687B685B6C03F0B0
:104180001C0301FA03F3114913430B607B680022FF
:10419000DA637B68012283F825207B68002283F89C
:1041A0002420002318461437BD465DF8047B704771
:1041B00007040240F8FFFDBFCDCCCCCC000002408C
:1041C000F8FBFDBF00040240A8000240A804024022
:1041D00080B586B000AFF860B9607A603B600023BC
:1041E000FB75FB6893F82430012B01D102234BE0CF
:1041F000FB68012283F82420FB6893F82530DBB2AA
:10420000012B3AD1FB68022283F82520FB680022AB
:10421000DA63FB681B681A68FB681B6822F00102FE
:104220001A603B687A68B968F86800F06BF9FB6857
:104230001B6B002B08D0FB681B681A68FB681B68A7
:1042400042F00E021A600FE0FB681B681A68FB68F8
:104250001B6822F004021A60FB681B681A68FB687E
:104260001B6842F00A021A60FB681B681A68FB6848
:104270001B6842F001021A6005E0FB68002283F827
:1042800024200223FB75FB7D18461837BD4680BDF0
:1042900080B485B000AF78600023FB737B6893F82F
:1042A0002530DBB2022B08D07B680422DA637B68FE
:1042B000002283F82420012322E07B681B681A680F
:1042C0007B681B6822F00E021A607B681B681A6804
:1042D0007B681B6822F001021A607B685B6C03F04C
:1042E0001C027B681B6C012101FA02F25A607B6898
:1042F000012283F825207B68002283F82420FB7BA1
:1043000018461437BD465DF8047B704780B584B00D
:1043100000AF78600023FB737B6893F82530DBB235
:10432000022B05D07B680422DA630123FB7329E0AA
:104330007B681B681A687B681B6822F00E021A6093
:104340007B681B681A687B681B6822F001021A6090
:104350007B685B6C03F01C027B681B6C012101FA1B
:1043600002F25A607B68012283F825207B680022D4
:1043700083F824207B689B6B002B03D07B689B6BAE
:1043800078689847FB7B18461037BD4680BD80B5DE
:1043900084B000AF78607B681B6C1B68FB607B6837
:1043A0001B681B68BB607B685B6C03F01C0304220A
:1043B0009A40FB681340002B26D0BB6803F004032F
:1043C000002B21D07B681B681B6803F02003002BA7
:1043D00007D17B681B681A687B681B6822F004029F
:1043E0001A607B685B6C03F01C027B681B6C042109
:1043F00001FA02F25A607B681B6B002B71D07B685C
:104400001B6B786898476CE07B685B6C03F01C035F
:1044100002229A40FB681340002B2ED0BB6803F0A9
:104420000203002B29D07B681B681B6803F0200364
:10443000002B0BD17B681B681A687B681B6822F015
:104440000A021A607B68012283F825207B685B6C76
:1044500003F01C027B681B6C022101FA02F25A6015
:104460007B68002283F824207B68DB6A002B38D02D
:104470007B68DB6A7868984733E07B685B6C03F0A5
:104480001C0308229A40FB681340002B2AD0BB680B
:1044900003F00803002B25D07B681B681A687B6833
:1044A0001B6822F00E021A607B685B6C03F01C0232
:1044B0007B681B6C012101FA02F25A607B680122C1
:1044C000DA637B68012283F825207B68002283F869
:1044D00024207B685B6B002B04D07B685B6B786867
:1044E000984700BF00BF1037BD4680BD80B483B081
:1044F00000AF78607B68DB6B18460C37BD465DF813
:10450000047B704780B485B000AFF860B9607A6012
:104510003B60FB685B6C03F01C02FB681B6C0121B9
:1045200001FA02F25A60FB681B683A685A60FB683D
:104530009B68102B08D1FB681B687A689A60FB683F
:104540001B68BA68DA6007E0FB681B68BA689A60A3
:10455000FB681B687A68DA6000BF1437BD465DF8F7
:10456000047B704780B487B000AF78603960002367
:104570007B6154E13B681A6801217B6901FA03F30E
:104580001340FB60FB68002B00F046813B685B68D2
:1045900003F00303012B05D03B685B6803F00303C2
:1045A000022B30D17B689B683B617B695B000322F7
:1045B00002FA03F3DB433A6913403B613B68DA6874
:1045C0007B695B0002FA03F33A6913433B617B6842
:1045D0003A699A607B685B683B6101227B6902FAF9
:1045E00003F3DB433A6913403B613B685B681B099B
:1045F00003F001027B6902FA03F33A6913433B615A
:104600007B683A695A603B685B6803F00303032BDD
:1046100017D07B68DB683B617B695B00032202FA91
:1046200003F3DB433A6913403B613B689A687B695B
:104630005B0002FA03F33A6913433B617B683A6912
:10464000DA603B685B6803F00303022B23D17B69CC
:10465000DA087B68083253F822303B617B6903F04B
:1046600007039B000F2202FA03F3DB433A6913406E
:104670003B613B681A697B6903F007039B0002FA00
:1046800003F33A6913433B617B69DA087B680832BC
:10469000396943F822107B681B683B617B695B00CA
:1046A000032202FA03F3DB433A6913403B613B68A0
:1046B0005B6803F003027B695B0002FA03F33A696B
:1046C00013433B617B683A691A603B685B6803F49B
:1046D0004033002B00F0A080584B1B6E574A43F02C
:1046E00001031366554B1B6E03F00103BB60BB68EF
:1046F000534A7B699B08023352F823303B617B6944
:1047000003F003039B000F2202FA03F3DB433A6931
:1047100013403B617B68B3F1904F19D07B68494AE5
:10472000934213D07B68484A93420DD07B68474A36
:10473000934207D07B68464A934201D1042308E0A4
:10474000072306E0032304E0022302E0012300E044
:1047500000237A6902F00302920093403A691343FE
:104760003B6137497B699B0802333A6941F8232052
:10477000384B9B683B61FB68DB433A6913403B6104
:104780003B685B6803F48013002B03D03A69FB6835
:1047900013433B612F4A3B6993602E4BDB683B61BF
:1047A000FB68DB433A6913403B613B685B6803F499
:1047B0000013002B03D03A69FB6813433B61254A81
:1047C0003B69D360234B5B683B61FB68DB433A6921
:1047D00013403B613B685B6803F40033002B03D05C
:1047E0003A69FB6813433B611A4A3B695360194BB2
:1047F0001B683B61FB68DB433A6913403B613B68E4
:104800005B6803F48033002B03D03A69FB681343E1
:104810003B61104A3B6913607B6901337B613B68F4
:104820001A687B6922FA03F3002B7FF4A3AE00BF62
:1048300000BF1C37BD465DF8047B70470010024086
:10484000000001400004004800080048000C004837
:10485000001000480004014080B485B000AF7860CB
:104860000B467B807B681A697B881340002B02D043
:104870000123FB7301E00023FB73FB7B1846143715
:10488000BD465DF8047B704780B483B000AF7860AC
:104890000B467B8013467B707B78002B03D07A8895
:1048A0007B689A6102E07A887B689A6200BF0C3765
:1048B000BD465DF8047B704780B485B000AF78607A
:1048C0000B467B807B685B69FB607A88FB681340E2
:1048D0001A04FB68D9437B880B401A437B689A61B2
:1048E00000BF1437BD465DF8047B704780B582B0C9
:1048F00000AF0346FB80084B5A69FB881340002B2E
:1049000006D0054AFB885361FB881846FCF702FE77
:1049100000BF0837BD4680BD0004014080B400AF31
:10492000044B1B6803F4C0631846BD465DF8047B66
:10493000704700BF0070004080B485B000AF786061
:104940007B68B3F5007F30D1234B1B6803F4C06351
:10495000B3F5007F38D0204B1B6823F4C0631E4A98
:1049600043F4007313601D4B1B68322202FB03F3F8
:104970001B4AA2FB03239B0C0133FB6002E0FB6894
:10498000013BFB60144B5B6903F48063B3F5806FFC
:1049900002D1FB68002BF2D10F4B5B6903F48063FB
:1049A000B3F5806F10D103230FE00B4B1B6803F4AA
:1049B000C063B3F5806F07D0074B1B6823F4C06357
:1049C000054A43F480631360002318461437BD463C
:1049D0005DF8047B704700BF0070004014000020A9
:1049E00083DE1B4380B588B000AF78607B68002B06
:1049F00002D1012300F002BC964B9B6803F00C032C
:104A0000BB61944BDB6803F003037B617B681B682D
:104A100003F01003002B00F0E480BB69002B07D0EB
:104A2000BB690C2B40F08B807B69012B40F08780A9
:104A3000884B1B6803F00203002B05D07B689B6941
:104A4000002B01D10123D9E37B681A6A814B1B68D3
:104A500003F00803002B04D07E4B1B6803F0F00327
:104A600005E07C4BD3F894301B0903F0F00393422C
:104A700023D27B681B6A184600F08CFD0346002B8E
:104A800001D00123BAE3734B1B68724A43F0080359
:104A90001360704B1B6823F0F0027B681B6A6D4942
:104AA00013430B606B4B5B6823F47F427B68DB69CD
:104AB0001B02684913434B6025E0664B1B68654A3F
:104AC00043F008031360634B1B6823F0F0027B681C
:104AD0001B6A604913430B605E4B5B6823F47F42A3
:104AE0007B68DB691B025B4913434B60BB69002B8E
:104AF00009D17B681B6A184600F04CFD0346002B69
:104B000001D001237AE300F081FC0246514B9B68FF
:104B10001B0903F00F035049CB5C03F01F0322FA7B
:104B200003F34E4A13604E4B1B681846FFF71EF9FD
:104B30000346FB73FB7B002B52D0FB7B5EE37B6861
:104B40009B69002B32D0434B1B68424A43F0010360
:104B50001360FFF75BF9386108E0FFF757F9024689
:104B60003B69D31A022B01D9032347E3394B1B6856
:104B700003F00203002BF0D0364B1B68354A43F09C
:104B800008031360334B1B6823F0F0027B681B6A39
:104B9000304913430B602F4B5B6823F47F427B68E3
:104BA000DB691B022B4913434B601AE0294B1B683E
:104BB000284A23F001031360FFF728F9386108E061
:104BC000FFF724F902463B69D31A022B01D90323CC
:104BD00014E3204B1B6803F00203002BF0D100E02C
:104BE00000BF7B681B6803F00103002B73D0BB6917
:104BF000082B05D0BB690C2B0ED17B69032B0BD185
:104C0000144B1B6803F40033002B63D07B685B6894
:104C1000002B5FD10123F1E27B685B68B3F5803F35
:104C200006D10C4B1B680B4A43F48033136025E01C
:104C30007B685B68B3F5A02F14D1064B1B68054A4F
:104C400043F480231360034B1B68024A43F4803310
:104C5000136013E000100240844201081400002099
:104C60003C000020A04B1B689F4A23F48033136054
:104C70009D4B1B689C4A23F4802313607B685B6810
:104C8000002B13D0FFF7C2F8386108E0FFF7BEF839
:104C900002463B69D31A642B01D90323AEE2924B3F
:104CA0001B6803F40033002BF0D014E0FFF7AEF8DC
:104CB000386108E0FFF7AAF802463B69D31A642B73
:104CC00001D903239AE2884B1B6803F40033002BBD
:104CD000F0D100E000BF7B681B6803F00203002BEB
:104CE00060D0BB69042B05D0BB690C2B19D17B6943
:104CF000022B16D17C4B1B6803F48063002B05D07C
:104D00007B68DB68002B01D1012377E2764B5B687F
:104D100023F0F8527B681B691B06734913434B60F1
:104D200040E07B68DB68002B23D06F4B1B686E4A2A
:104D300043F480731360FFF769F8386108E0FFF708
:104D400065F802463B69D31A022B01D9032355E2C9
:104D5000654B1B6803F48063002BF0D0624B5B68EB
:104D600023F0F8527B681B691B065F4913434B60B5
:104D700018E05D4B1B685C4A23F480731360FFF7F7
:104D800045F8386108E0FFF741F802463B69D31A5D
:104D9000022B01D9032331E2534B1B6803F48063D8
:104DA000002BF0D17B681B6803F00803002B3CD07C
:104DB0007B685B69002B1CD04B4BD3F894304A4A7C
:104DC00043F00103C2F89430FFF720F8386108E09F
:104DD000FFF71CF802463B69D31A022B01D90323C3
:104DE0000CE2414BD3F8943003F00203002BEFD0D8
:104DF0001BE03D4BD3F894303B4A23F00103C2F84B
:104E00009430FFF703F8386108E0FEF7FFFF024631
:104E10003B69D31A022B01D90323EFE1324BD3F8BC
:104E2000943003F00203002BEFD17B681B6803F082
:104E30000403002B00F0A6800023FB772A4B9B6D18
:104E400003F08053002B0DD1274B9B6D264A43F076
:104E500080539365244B9B6D03F08053BB60BB680C
:104E60000123FB77214B1B6803F48073002B18D1BF
:104E70001E4B1B681D4A43F480731360FEF7C6FF88
:104E8000386108E0FEF7C2FF02463B69D31A022BE5
:104E900001D90323B2E1154B1B6803F48073002B87
:104EA000F0D07B689B68012B08D10F4BD3F8903072
:104EB0000D4A43F00103C2F8903029E07B689B68FB
:104EC000052B15D1084BD3F89030074A43F0040363
:104ED000C2F89030044BD3F89030034A43F00103FA
:104EE000C2F8903014E000BF001002400070004093
:104EF0009A4BD3F89030994A23F00103C2F89030CE
:104F0000964BD3F89030954A23F00403C2F89030C2
:104F10007B689B68002B16D0FEF778FF38610AE0AB
:104F2000FEF774FF02463B69D31A41F2883293427E
:104F300001D9032362E1894BD3F8903003F00203D7
:104F4000002BEDD015E0FEF761FF38610AE0FEF7B7
:104F50005DFF02463B69D31A41F28832934201D980
:104F600003234BE17D4BD3F8903003F00203002B79
:104F7000EDD1FB7F012B05D1784B9B6D774A23F058
:104F8000805393657B681B6803F02003002B3CD0A3
:104F90007B685B6A002B1CD0704BD3F898306F4A4B
:104FA00043F00103C2F89830FEF730FF386108E0A3
:104FB000FEF72CFF02463B69D31A022B01D90323CB
:104FC0001CE1664BD3F8983003F00203002BEFD0BE
:104FD0001BE0624BD3F89830604A23F00103C2F81B
:104FE0009830FEF713FF386108E0FEF70FFF024626
:104FF0003B69D31A022B01D90323FFE0574BD3F8A7
:10500000983003F00203002BEFD17B689B6A002BE2
:1050100000F0F3807B689B6A022B40F0C9804F4B05
:10502000DB687B617B6903F003027B68DB6A9A4281
:105030002CD17B6903F070027B681B6B013B1B0169
:105040009A4223D17B6903F4FE427B685B6B1B02AF
:105050009A421BD17B6903F078427B689B6BDB062D
:105060009A4213D17B6903F4C0027B68DB6B5B0857
:10507000013B5B059A4209D17B6903F0C0627B6802
:105080001B6C5B08013B5B069A426BD0BB690C2B27
:1050900062D0324B1B6803F08063002B01D00123E8
:1050A000ACE02E4B1B682D4A23F080731360FEF793
:1050B000ADFE386108E0FEF7A9FE02463B69D31A4F
:1050C000022B01D9032399E0244B1B6803F00073E2
:1050D000002BF0D1214BDA68214B13407A68D16A5A
:1050E0007A68126B013A120111437A68526B12020C
:1050F00011437A68D26B5208013A520511437A681B
:10510000126C5208013A520611437A68926BD20629
:105110000A4312491343CB60104B1B680F4A43F0FC
:10512000807313600D4BDB680C4A43F08073D360CF
:10513000FEF76CFE386108E0FEF768FE02463B6948
:10514000D31A022B01D9032358E0044B1B6803F048
:105150000073002BF0D050E001234FE0001002401C
:105160008C809D01274B1B6803F00073002B44D1FA
:10517000244B1B68234A43F080731360214BDB6888
:10518000204A43F08073D360FEF740FE386108E0A8
:10519000FEF73CFE02463B69D31A022B01D90323DA
:1051A0002CE0184B1B6803F00073002BF0D024E0B8
:1051B000BB690C2B1FD0134B1B68124A23F0807362
:1051C0001360FEF723FE386108E0FEF71FFE02467B
:1051D0003B69D31A022B01D903230FE0094B1B684B
:1051E00003F00073002BF0D1064BDA680549064B3B
:1051F0001340CB6001E0012300E000231846203774
:10520000BD4680BD00100240FCFFEEFE80B584B0BC
:1052100000AF786039607B68002B01D10123E7E0A3
:10522000754B1B6803F007033A689A4210D9724B1A
:105230001B6823F0070270493B6813430B606E4BF9
:105240001B6803F007033A689A4201D00123CFE0BC
:105250007B681B6803F00203002B10D07B689A6800
:10526000664B9B6803F0F0039A4208D9634B9B6836
:1052700023F0F0027B689B68604913438B607B6876
:105280001B6803F00103002B4CD07B685B68032B89
:1052900007D15A4B1B6803F00073002B21D1012367
:1052A000A6E07B685B68022B07D1544B1B6803F4B4
:1052B0000033002B15D101239AE07B685B68002B3B
:1052C00007D14E4B1B6803F00203002B09D10123C9
:1052D0008EE04A4B1B6803F48063002B01D101234D
:1052E00086E0464B9B6823F003027B685B6843497A
:1052F00013438B60FEF78AFDF8600AE0FEF786FD37
:105300000246FB68D31A41F28832934201D9032343
:105310006EE03A4B9B6803F00C027B685B689B0075
:105320009A42EBD17B681B6803F00203002B10D07C
:105330007B689A68314B9B6803F0F0039A4208D26D
:105340002E4B9B6823F0F0027B689B682B4913432C
:105350008B60294B1B6803F007033A689A4210D20E
:10536000254B1B6823F0070223493B6813430B605E
:10537000214B1B6803F007033A689A4201D00123CE
:1053800036E07B681B6803F00403002B08D01B4B3E
:105390009B6823F4E0627B68DB68184913438B60E9
:1053A0007B681B6803F00803002B09D0134B9B6834
:1053B00023F460527B681B69DB00104913438B6048
:1053C00000F024F802460D4B9B681B0903F00F0305
:1053D0000B49CB5C03F01F0322FA03F3094A136065
:1053E000094B1B681846FEF7C1FC0346FB72FB7AAB
:1053F00018461037BD4680BD002002400010024014
:1054000084420108140000203C00002080B489B0D0
:1054100000AF0023FB610023BB613E4B9B6803F0A0
:105420000C033B613B4BDB6803F00303FB603B6910
:10543000002B05D03B690C2B21D1FB68012B1ED121
:10544000344B1B6803F00803002B07D1314BD3F812
:1054500094301B0A03F00F03FB6105E02D4B1B6822
:105460001B0903F00F03FB612B4AFB6952F8233041
:10547000FB613B69002B0DD1FB69BB610AE03B6915
:10548000042B02D1254BBB6104E03B69082B01D101
:10549000234BBB613B690C2B34D11E4BDB6803F003
:1054A0000303BB60BB68022B03D0BB68032B03D094
:1054B00005E01A4B7B6105E0194B7B6102E0FB695B
:1054C0007B6100BF134BDB681B0903F0070301334B
:1054D0007B60104BDB681B0A03F07F037A6903FBD8
:1054E00002F27B68B2FBF3F37B610A4BDB685B0E75
:1054F00003F0030301335B003B607A693B68B2FB56
:10550000F3F3BB61BB6918462437BD465DF8047BE5
:10551000704700BF001002409C4201080024F400C4
:1055200000127A0080B400AF034B1B681846BD46DA
:105530005DF8047B704700BF1400002080B500AF09
:10554000FFF7F0FF0246064B9B681B0A03F00703B8
:105550000449CB5C03F01F0322FA03F3184680BD15
:10556000001002409442010880B500AFFFF7DAFF57
:105570000246064B9B68DB0A03F007030449CB5C39
:1055800003F01F0322FA03F3184680BD0010024007
:105590009442010880B586B000AF786000233B617B
:1055A0002A4B9B6D03F08053002B03D0FFF7B6F915
:1055B000786114E0254B9B6D244A43F0805393653A
:1055C000224B9B6D03F08053FB60FB68FFF7A6F94D
:1055D00078611E4B9B6D1D4A23F0805393657B6958
:1055E000B3F5007F0BD17B68802B19D97B68A02B8A
:1055F00002D902233B6113E001233B6110E07B6889
:10560000802B02D903233B610AE07B68802B02D107
:1056100002233B6104E07B68702B01D101233B61D5
:105620000B4B1B6823F0070209493B6913430B60CE
:10563000074B1B6803F007033A699A4201D0012324
:1056400000E0002318461837BD4680BD0010024018
:105650000020024080B586B000AF78600023FB7464
:105660000023BB747B681B6803F40063002B31D0FC
:105670007B685B6CB3F5400F1AD0B3F5400F14D8BC
:10568000002B09D0B3F5000F0FD15D4BDB685C4AEE
:1056900043F48033D3600CE07B6804330021184668
:1056A00000F022FA0346FB7403E00123FB7400E0E0
:1056B00000BFFB7C002B0BD1514BD3F8883023F477
:1056C00040027B685B6C4E491343C1F8883001E0AF
:1056D000FB7CBB747B681B6803F40033002B00F079
:1056E0009E8000237B74464B9B6D03F08053002B00
:1056F00001D1012300E00023002B0DD0404B9B6D16
:105700003F4A43F0805393653D4B9B6D03F08053BC
:10571000BB60BB6801237B743A4B1B68394A43F476
:1057200080731360FEF772FBF86009E0FEF76EFB12
:105730000246FB68D31A022B02D90323FB7405E04F
:10574000304B1B6803F48073002BEFD0FB7C002BE5
:105750005AD12B4BD3F8903003F440737B617B69B3
:10576000002B1ED07B68DB6D7A699A4219D0244BDE
:10577000D3F8903023F440737B61214BD3F8903001
:105780001F4A43F48033C2F890301D4BD3F8903059
:105790001B4A23F48033C2F89030194A7B69C2F85F
:1057A00090307B6903F00103002B16D0FEF72EFB2F
:1057B000F8600BE0FEF72AFB0246FB68D31A41F2C1
:1057C0008832934202D90323FB7406E00C4BD3F8D2
:1057D000903003F00203002BECD0FB7C002B0BD1AC
:1057E000074BD3F8903023F440727B68DB6D04499B
:1057F0001343C1F8903009E0FB7CBB7406E000BFA6
:105800000010024000700040FB7CBB747B7C012BCD
:1058100005D18D4B9B6D8C4A23F0805393657B683B
:105820001B6803F00103002B0AD0874BD3F88830A4
:1058300023F003027B681B6A83491343C1F8883055
:105840007B681B6803F00203002B0AD07E4BD3F861
:10585000883023F00C027B685B6A7B491343C1F8F4
:1058600088307B681B6803F00403002B0AD0764B5A
:10587000D3F8883023F030027B689B6A7249134367
:10588000C1F888307B681B6803F02003002B0AD026
:105890006D4BD3F8883023F440627B68DB6A6A4939
:1058A0001343C1F888307B681B6803F40073002B36
:1058B0000AD0654BD3F8883023F440227B68DB6B39
:1058C00061491343C1F888307B681B6803F4806327
:1058D000002B0AD05C4BD3F8883023F440127B684D
:1058E0001B6C59491343C1F888307B681B6803F06F
:1058F0004003002B0AD0544BD3F8883023F4405295
:105900007B681B6B50491343C1F888307B681B6868
:1059100003F08003002B0AD04B4BD3F8883023F4DC
:1059200040427B685B6B48491343C1F888307B6811
:105930001B6803F48073002B0AD0434BD3F88830E4
:1059400023F440327B689B6B3F491343C1F8883096
:105950007B681B6803F40053002B28D03A4BD3F824
:10596000883023F040627B689B6C37491343C1F851
:1059700088307B689B6CB3F1006F06D1324BDB68DB
:10598000314A43F48013D36011E07B689B6CB3F120
:10599000806F0CD17B6804330121184600F0A4F815
:1059A0000346FB74FB7C002B01D0FB7CBB747B6843
:1059B0001B6803F40023002B28D0234BD3F8883036
:1059C00023F040627B68DB6C1F491343C1F88830C9
:1059D0007B68DB6CB3F1006F06D11B4BDB681A4AA6
:1059E00043F48013D36011E07B68DB6CB3F1806F0C
:1059F0000CD17B6804330121184600F075F803468A
:105A0000FB74FB7C002B01D0FB7CBB747B681B68A8
:105A100003F48023002B2BD00B4BD3F8883023F0DA
:105A200040627B681B6D08491343C1F888307B686E
:105A30001B6DB3F1006F09D1034BDB68024A43F4DD
:105A40008013D36014E000BF001002407B681B6D20
:105A5000B3F1806F0CD17B6804330121184600F04C
:105A600043F80346FB74FB7C002B01D0FB7CBB742A
:105A70007B681B6803F48043002B1CD0194BD3F8C0
:105A8000883023F040527B685B6D16491343C1F8A0
:105A900088307B685B6DB3F1805F0CD17B68043329
:105AA0000221184600F020F80346FB74FB7C002B13
:105AB00001D0FB7CBB747B681B6803F40043002BA4
:105AC0000AD0084BD3F8883023F080427B689B6D66
:105AD00004491343C1F88830BB7C18461837BD46CB
